{
	"contracts/MyfirstSmartContarct.sol": {
		"myFirtsSmartcontarct": {
			"abi": [
				{
					"inputs": [
						{
							"internalType": "string[]",
							"name": "candidateNames",
							"type": "string[]"
						}
					],
					"stateMutability": "nonpayable",
					"type": "constructor"
				},
				{
					"inputs": [
						{
							"internalType": "string",
							"name": "",
							"type": "string"
						}
					],
					"name": "VotesReceived",
					"outputs": [
						{
							"internalType": "uint256",
							"name": "",
							"type": "uint256"
						}
					],
					"stateMutability": "view",
					"type": "function"
				},
				{
					"inputs": [
						{
							"internalType": "uint256",
							"name": "",
							"type": "uint256"
						}
					],
					"name": "candidateList",
					"outputs": [
						{
							"internalType": "string",
							"name": "",
							"type": "string"
						}
					],
					"stateMutability": "view",
					"type": "function"
				},
				{
					"inputs": [
						{
							"internalType": "string",
							"name": "candidate",
							"type": "string"
						}
					],
					"name": "totalVotesfor",
					"outputs": [
						{
							"internalType": "uint256",
							"name": "",
							"type": "uint256"
						}
					],
					"stateMutability": "view",
					"type": "function"
				},
				{
					"inputs": [
						{
							"internalType": "string",
							"name": "candidate",
							"type": "string"
						}
					],
					"name": "validCandidate",
					"outputs": [
						{
							"internalType": "bool",
							"name": "",
							"type": "bool"
						}
					],
					"stateMutability": "view",
					"type": "function"
				},
				{
					"inputs": [
						{
							"internalType": "string",
							"name": "candidate",
							"type": "string"
						}
					],
					"name": "voteForCandidate",
					"outputs": [],
					"stateMutability": "nonpayable",
					"type": "function"
				}
			],
			"devdoc": {
				"kind": "dev",
				"methods": {},
				"version": 1
			},
			"evm": {
				"assembly": "    /* \"contracts/MyfirstSmartContarct.sol\":58:945  contract myFirtsSmartcontarct{... */\n  mstore(0x40, 0x80)\n    /* \"contracts/MyfirstSmartContarct.sol\":185:276  constructor (string[] memory candidateNames){... */\n  callvalue\n  dup1\n  iszero\n  tag_1\n  jumpi\n  0x00\n  dup1\n  revert\ntag_1:\n  pop\n  mload(0x40)\n  sub(codesize, bytecodeSize)\n  dup1\n  bytecodeSize\n  dup4\n  codecopy\n  dup2\n  dup2\n  add\n  0x40\n  mstore\n  dup2\n  add\n  swap1\n  tag_2\n  swap2\n  swap1\n  tag_3\n  jump\t// in\ntag_2:\n    /* \"contracts/MyfirstSmartContarct.sol\":255:269  candidateNames */\n  dup1\n    /* \"contracts/MyfirstSmartContarct.sol\":239:252  candidateList */\n  0x01\n    /* \"contracts/MyfirstSmartContarct.sol\":239:269  candidateList = candidateNames */\n  swap1\n  dup2\n  tag_6\n  swap2\n  swap1\n  tag_7\n  jump\t// in\ntag_6:\n  pop\n    /* \"contracts/MyfirstSmartContarct.sol\":185:276  constructor (string[] memory candidateNames){... */\n  pop\n    /* \"contracts/MyfirstSmartContarct.sol\":58:945  contract myFirtsSmartcontarct{... */\n  jump(tag_8)\n    /* \"#utility.yul\":7:82   */\ntag_9:\n    /* \"#utility.yul\":40:46   */\n  0x00\n    /* \"#utility.yul\":73:75   */\n  0x40\n    /* \"#utility.yul\":67:76   */\n  mload\n    /* \"#utility.yul\":57:76   */\n  swap1\n  pop\n    /* \"#utility.yul\":7:82   */\n  swap1\n  jump\t// out\n    /* \"#utility.yul\":88:205   */\ntag_10:\n    /* \"#utility.yul\":197:198   */\n  0x00\n    /* \"#utility.yul\":194:195   */\n  dup1\n    /* \"#utility.yul\":187:199   */\n  revert\n    /* \"#utility.yul\":211:328   */\ntag_11:\n    /* \"#utility.yul\":320:321   */\n  0x00\n    /* \"#utility.yul\":317:318   */\n  dup1\n    /* \"#utility.yul\":310:322   */\n  revert\n    /* \"#utility.yul\":334:451   */\ntag_12:\n    /* \"#utility.yul\":443:444   */\n  0x00\n    /* \"#utility.yul\":440:441   */\n  dup1\n    /* \"#utility.yul\":433:445   */\n  revert\n    /* \"#utility.yul\":457:559   */\ntag_13:\n    /* \"#utility.yul\":498:504   */\n  0x00\n    /* \"#utility.yul\":549:551   */\n  0x1f\n    /* \"#utility.yul\":545:552   */\n  not\n    /* \"#utility.yul\":540:542   */\n  0x1f\n    /* \"#utility.yul\":533:538   */\n  dup4\n    /* \"#utility.yul\":529:543   */\n  add\n    /* \"#utility.yul\":525:553   */\n  and\n    /* \"#utility.yul\":515:553   */\n  swap1\n  pop\n    /* \"#utility.yul\":457:559   */\n  swap2\n  swap1\n  pop\n  jump\t// out\n    /* \"#utility.yul\":565:745   */\ntag_14:\n    /* \"#utility.yul\":613:690   */\n  0x4e487b7100000000000000000000000000000000000000000000000000000000\n    /* \"#utility.yul\":610:611   */\n  0x00\n    /* \"#utility.yul\":603:691   */\n  mstore\n    /* \"#utility.yul\":710:714   */\n  0x41\n    /* \"#utility.yul\":707:708   */\n  0x04\n    /* \"#utility.yul\":700:715   */\n  mstore\n    /* \"#utility.yul\":734:738   */\n  0x24\n    /* \"#utility.yul\":731:732   */\n  0x00\n    /* \"#utility.yul\":724:739   */\n  revert\n    /* \"#utility.yul\":751:1032   */\ntag_15:\n    /* \"#utility.yul\":834:861   */\n  tag_76\n    /* \"#utility.yul\":856:860   */\n  dup3\n    /* \"#utility.yul\":834:861   */\n  tag_13\n  jump\t// in\ntag_76:\n    /* \"#utility.yul\":826:832   */\n  dup2\n    /* \"#utility.yul\":822:862   */\n  add\n    /* \"#utility.yul\":964:970   */\n  dup2\n    /* \"#utility.yul\":952:962   */\n  dup2\n    /* \"#utility.yul\":949:971   */\n  lt\n    /* \"#utility.yul\":928:946   */\n  0xffffffffffffffff\n    /* \"#utility.yul\":916:926   */\n  dup3\n    /* \"#utility.yul\":913:947   */\n  gt\n    /* \"#utility.yul\":910:972   */\n  or\n    /* \"#utility.yul\":907:995   */\n  iszero\n  tag_77\n  jumpi\n    /* \"#utility.yul\":975:993   */\n  tag_78\n  tag_14\n  jump\t// in\ntag_78:\n    /* \"#utility.yul\":907:995   */\ntag_77:\n    /* \"#utility.yul\":1015:1025   */\n  dup1\n    /* \"#utility.yul\":1011:1013   */\n  0x40\n    /* \"#utility.yul\":1004:1026   */\n  mstore\n    /* \"#utility.yul\":794:1032   */\n  pop\n    /* \"#utility.yul\":751:1032   */\n  pop\n  pop\n  jump\t// out\n    /* \"#utility.yul\":1038:1167   */\ntag_16:\n    /* \"#utility.yul\":1072:1078   */\n  0x00\n    /* \"#utility.yul\":1099:1119   */\n  tag_80\n  tag_9\n  jump\t// in\ntag_80:\n    /* \"#utility.yul\":1089:1119   */\n  swap1\n  pop\n    /* \"#utility.yul\":1128:1161   */\n  tag_81\n    /* \"#utility.yul\":1156:1160   */\n  dup3\n    /* \"#utility.yul\":1148:1154   */\n  dup3\n    /* \"#utility.yul\":1128:1161   */\n  tag_15\n  jump\t// in\ntag_81:\n    /* \"#utility.yul\":1038:1167   */\n  swap2\n  swap1\n  pop\n  jump\t// out\n    /* \"#utility.yul\":1173:1494   */\ntag_17:\n    /* \"#utility.yul\":1260:1264   */\n  0x00\n    /* \"#utility.yul\":1350:1368   */\n  0xffffffffffffffff\n    /* \"#utility.yul\":1342:1348   */\n  dup3\n    /* \"#utility.yul\":1339:1369   */\n  gt\n    /* \"#utility.yul\":1336:1392   */\n  iszero\n  tag_83\n  jumpi\n    /* \"#utility.yul\":1372:1390   */\n  tag_84\n  tag_14\n  jump\t// in\ntag_84:\n    /* \"#utility.yul\":1336:1392   */\ntag_83:\n    /* \"#utility.yul\":1422:1426   */\n  0x20\n    /* \"#utility.yul\":1414:1420   */\n  dup3\n    /* \"#utility.yul\":1410:1427   */\n  mul\n    /* \"#utility.yul\":1402:1427   */\n  swap1\n  pop\n    /* \"#utility.yul\":1482:1486   */\n  0x20\n    /* \"#utility.yul\":1476:1480   */\n  dup2\n    /* \"#utility.yul\":1472:1487   */\n  add\n    /* \"#utility.yul\":1464:1487   */\n  swap1\n  pop\n    /* \"#utility.yul\":1173:1494   */\n  swap2\n  swap1\n  pop\n  jump\t// out\n    /* \"#utility.yul\":1500:1617   */\ntag_18:\n    /* \"#utility.yul\":1609:1610   */\n  0x00\n    /* \"#utility.yul\":1606:1607   */\n  dup1\n    /* \"#utility.yul\":1599:1611   */\n  revert\n    /* \"#utility.yul\":1623:1740   */\ntag_19:\n    /* \"#utility.yul\":1732:1733   */\n  0x00\n    /* \"#utility.yul\":1729:1730   */\n  dup1\n    /* \"#utility.yul\":1722:1734   */\n  revert\n    /* \"#utility.yul\":1746:2054   */\ntag_20:\n    /* \"#utility.yul\":1808:1812   */\n  0x00\n    /* \"#utility.yul\":1898:1916   */\n  0xffffffffffffffff\n    /* \"#utility.yul\":1890:1896   */\n  dup3\n    /* \"#utility.yul\":1887:1917   */\n  gt\n    /* \"#utility.yul\":1884:1940   */\n  iszero\n  tag_88\n  jumpi\n    /* \"#utility.yul\":1920:1938   */\n  tag_89\n  tag_14\n  jump\t// in\ntag_89:\n    /* \"#utility.yul\":1884:1940   */\ntag_88:\n    /* \"#utility.yul\":1958:1987   */\n  tag_90\n    /* \"#utility.yul\":1980:1986   */\n  dup3\n    /* \"#utility.yul\":1958:1987   */\n  tag_13\n  jump\t// in\ntag_90:\n    /* \"#utility.yul\":1950:1987   */\n  swap1\n  pop\n    /* \"#utility.yul\":2042:2046   */\n  0x20\n    /* \"#utility.yul\":2036:2040   */\n  dup2\n    /* \"#utility.yul\":2032:2047   */\n  add\n    /* \"#utility.yul\":2024:2047   */\n  swap1\n  pop\n    /* \"#utility.yul\":1746:2054   */\n  swap2\n  swap1\n  pop\n  jump\t// out\n    /* \"#utility.yul\":2060:2308   */\ntag_21:\n    /* \"#utility.yul\":2142:2143   */\n  0x00\n    /* \"#utility.yul\":2152:2265   */\ntag_92:\n    /* \"#utility.yul\":2166:2172   */\n  dup4\n    /* \"#utility.yul\":2163:2164   */\n  dup2\n    /* \"#utility.yul\":2160:2173   */\n  lt\n    /* \"#utility.yul\":2152:2265   */\n  iszero\n  tag_94\n  jumpi\n    /* \"#utility.yul\":2251:2252   */\n  dup1\n    /* \"#utility.yul\":2246:2249   */\n  dup3\n    /* \"#utility.yul\":2242:2253   */\n  add\n    /* \"#utility.yul\":2236:2254   */\n  mload\n    /* \"#utility.yul\":2232:2233   */\n  dup2\n    /* \"#utility.yul\":2227:2230   */\n  dup5\n    /* \"#utility.yul\":2223:2234   */\n  add\n    /* \"#utility.yul\":2216:2255   */\n  mstore\n    /* \"#utility.yul\":2188:2190   */\n  0x20\n    /* \"#utility.yul\":2185:2186   */\n  dup2\n    /* \"#utility.yul\":2181:2191   */\n  add\n    /* \"#utility.yul\":2176:2191   */\n  swap1\n  pop\n    /* \"#utility.yul\":2152:2265   */\n  jump(tag_92)\ntag_94:\n    /* \"#utility.yul\":2299:2300   */\n  0x00\n    /* \"#utility.yul\":2290:2296   */\n  dup5\n    /* \"#utility.yul\":2285:2288   */\n  dup5\n    /* \"#utility.yul\":2281:2297   */\n  add\n    /* \"#utility.yul\":2274:2301   */\n  mstore\n    /* \"#utility.yul\":2122:2308   */\n  pop\n    /* \"#utility.yul\":2060:2308   */\n  pop\n  pop\n  pop\n  jump\t// out\n    /* \"#utility.yul\":2314:2748   */\ntag_22:\n    /* \"#utility.yul\":2403:2408   */\n  0x00\n    /* \"#utility.yul\":2428:2494   */\n  tag_96\n    /* \"#utility.yul\":2444:2493   */\n  tag_97\n    /* \"#utility.yul\":2486:2492   */\n  dup5\n    /* \"#utility.yul\":2444:2493   */\n  tag_20\n  jump\t// in\ntag_97:\n    /* \"#utility.yul\":2428:2494   */\n  tag_16\n  jump\t// in\ntag_96:\n    /* \"#utility.yul\":2419:2494   */\n  swap1\n  pop\n    /* \"#utility.yul\":2517:2523   */\n  dup3\n    /* \"#utility.yul\":2510:2515   */\n  dup2\n    /* \"#utility.yul\":2503:2524   */\n  mstore\n    /* \"#utility.yul\":2555:2559   */\n  0x20\n    /* \"#utility.yul\":2548:2553   */\n  dup2\n    /* \"#utility.yul\":2544:2560   */\n  add\n    /* \"#utility.yul\":2593:2596   */\n  dup5\n    /* \"#utility.yul\":2584:2590   */\n  dup5\n    /* \"#utility.yul\":2579:2582   */\n  dup5\n    /* \"#utility.yul\":2575:2591   */\n  add\n    /* \"#utility.yul\":2572:2597   */\n  gt\n    /* \"#utility.yul\":2569:2681   */\n  iszero\n  tag_98\n  jumpi\n    /* \"#utility.yul\":2600:2679   */\n  tag_99\n  tag_19\n  jump\t// in\ntag_99:\n    /* \"#utility.yul\":2569:2681   */\ntag_98:\n    /* \"#utility.yul\":2690:2742   */\n  tag_100\n    /* \"#utility.yul\":2735:2741   */\n  dup5\n    /* \"#utility.yul\":2730:2733   */\n  dup3\n    /* \"#utility.yul\":2725:2728   */\n  dup6\n    /* \"#utility.yul\":2690:2742   */\n  tag_21\n  jump\t// in\ntag_100:\n    /* \"#utility.yul\":2409:2748   */\n  pop\n    /* \"#utility.yul\":2314:2748   */\n  swap4\n  swap3\n  pop\n  pop\n  pop\n  jump\t// out\n    /* \"#utility.yul\":2768:3123   */\ntag_23:\n    /* \"#utility.yul\":2835:2840   */\n  0x00\n    /* \"#utility.yul\":2884:2887   */\n  dup3\n    /* \"#utility.yul\":2877:2881   */\n  0x1f\n    /* \"#utility.yul\":2869:2875   */\n  dup4\n    /* \"#utility.yul\":2865:2882   */\n  add\n    /* \"#utility.yul\":2861:2888   */\n  slt\n    /* \"#utility.yul\":2851:2973   */\n  tag_102\n  jumpi\n    /* \"#utility.yul\":2892:2971   */\n  tag_103\n  tag_12\n  jump\t// in\ntag_103:\n    /* \"#utility.yul\":2851:2973   */\ntag_102:\n    /* \"#utility.yul\":3002:3008   */\n  dup2\n    /* \"#utility.yul\":2996:3009   */\n  mload\n    /* \"#utility.yul\":3027:3117   */\n  tag_104\n    /* \"#utility.yul\":3113:3116   */\n  dup5\n    /* \"#utility.yul\":3105:3111   */\n  dup3\n    /* \"#utility.yul\":3098:3102   */\n  0x20\n    /* \"#utility.yul\":3090:3096   */\n  dup7\n    /* \"#utility.yul\":3086:3103   */\n  add\n    /* \"#utility.yul\":3027:3117   */\n  tag_22\n  jump\t// in\ntag_104:\n    /* \"#utility.yul\":3018:3117   */\n  swap2\n  pop\n    /* \"#utility.yul\":2841:3123   */\n  pop\n    /* \"#utility.yul\":2768:3123   */\n  swap3\n  swap2\n  pop\n  pop\n  jump\t// out\n    /* \"#utility.yul\":3145:4105   */\ntag_24:\n    /* \"#utility.yul\":3262:3267   */\n  0x00\n    /* \"#utility.yul\":3287:3378   */\n  tag_106\n    /* \"#utility.yul\":3303:3377   */\n  tag_107\n    /* \"#utility.yul\":3370:3376   */\n  dup5\n    /* \"#utility.yul\":3303:3377   */\n  tag_17\n  jump\t// in\ntag_107:\n    /* \"#utility.yul\":3287:3378   */\n  tag_16\n  jump\t// in\ntag_106:\n    /* \"#utility.yul\":3278:3378   */\n  swap1\n  pop\n    /* \"#utility.yul\":3398:3403   */\n  dup1\n    /* \"#utility.yul\":3427:3433   */\n  dup4\n    /* \"#utility.yul\":3420:3425   */\n  dup3\n    /* \"#utility.yul\":3413:3434   */\n  mstore\n    /* \"#utility.yul\":3461:3465   */\n  0x20\n    /* \"#utility.yul\":3454:3459   */\n  dup3\n    /* \"#utility.yul\":3450:3466   */\n  add\n    /* \"#utility.yul\":3443:3466   */\n  swap1\n  pop\n    /* \"#utility.yul\":3514:3518   */\n  0x20\n    /* \"#utility.yul\":3506:3512   */\n  dup5\n    /* \"#utility.yul\":3502:3519   */\n  mul\n    /* \"#utility.yul\":3494:3500   */\n  dup4\n    /* \"#utility.yul\":3490:3520   */\n  add\n    /* \"#utility.yul\":3543:3546   */\n  dup6\n    /* \"#utility.yul\":3535:3541   */\n  dup2\n    /* \"#utility.yul\":3532:3547   */\n  gt\n    /* \"#utility.yul\":3529:3651   */\n  iszero\n  tag_108\n  jumpi\n    /* \"#utility.yul\":3562:3641   */\n  tag_109\n  tag_18\n  jump\t// in\ntag_109:\n    /* \"#utility.yul\":3529:3651   */\ntag_108:\n    /* \"#utility.yul\":3677:3683   */\n  dup4\n    /* \"#utility.yul\":3660:4099   */\ntag_110:\n    /* \"#utility.yul\":3694:3700   */\n  dup2\n    /* \"#utility.yul\":3689:3692   */\n  dup2\n    /* \"#utility.yul\":3686:3701   */\n  lt\n    /* \"#utility.yul\":3660:4099   */\n  iszero\n  tag_112\n  jumpi\n    /* \"#utility.yul\":3776:3779   */\n  dup1\n    /* \"#utility.yul\":3770:3780   */\n  mload\n    /* \"#utility.yul\":3812:3830   */\n  0xffffffffffffffff\n    /* \"#utility.yul\":3799:3810   */\n  dup2\n    /* \"#utility.yul\":3796:3831   */\n  gt\n    /* \"#utility.yul\":3793:3915   */\n  iszero\n  tag_113\n  jumpi\n    /* \"#utility.yul\":3834:3913   */\n  tag_114\n  tag_12\n  jump\t// in\ntag_114:\n    /* \"#utility.yul\":3793:3915   */\ntag_113:\n    /* \"#utility.yul\":3958:3969   */\n  dup1\n    /* \"#utility.yul\":3950:3956   */\n  dup7\n    /* \"#utility.yul\":3946:3970   */\n  add\n    /* \"#utility.yul\":3996:4054   */\n  tag_115\n    /* \"#utility.yul\":4050:4053   */\n  dup10\n    /* \"#utility.yul\":4038:4048   */\n  dup3\n    /* \"#utility.yul\":3996:4054   */\n  tag_23\n  jump\t// in\ntag_115:\n    /* \"#utility.yul\":3991:3994   */\n  dup6\n    /* \"#utility.yul\":3984:4055   */\n  mstore\n    /* \"#utility.yul\":4084:4088   */\n  0x20\n    /* \"#utility.yul\":4079:4082   */\n  dup6\n    /* \"#utility.yul\":4075:4089   */\n  add\n    /* \"#utility.yul\":4068:4089   */\n  swap5\n  pop\n    /* \"#utility.yul\":3736:4099   */\n  pop\n  pop\n    /* \"#utility.yul\":3720:3724   */\n  0x20\n    /* \"#utility.yul\":3715:3718   */\n  dup2\n    /* \"#utility.yul\":3711:3725   */\n  add\n    /* \"#utility.yul\":3704:3725   */\n  swap1\n  pop\n    /* \"#utility.yul\":3660:4099   */\n  jump(tag_110)\ntag_112:\n    /* \"#utility.yul\":3664:3685   */\n  pop\n    /* \"#utility.yul\":3268:4105   */\n  pop\n  pop\n    /* \"#utility.yul\":3145:4105   */\n  swap4\n  swap3\n  pop\n  pop\n  pop\n  jump\t// out\n    /* \"#utility.yul\":4127:4532   */\ntag_25:\n    /* \"#utility.yul\":4219:4224   */\n  0x00\n    /* \"#utility.yul\":4268:4271   */\n  dup3\n    /* \"#utility.yul\":4261:4265   */\n  0x1f\n    /* \"#utility.yul\":4253:4259   */\n  dup4\n    /* \"#utility.yul\":4249:4266   */\n  add\n    /* \"#utility.yul\":4245:4272   */\n  slt\n    /* \"#utility.yul\":4235:4357   */\n  tag_117\n  jumpi\n    /* \"#utility.yul\":4276:4355   */\n  tag_118\n  tag_12\n  jump\t// in\ntag_118:\n    /* \"#utility.yul\":4235:4357   */\ntag_117:\n    /* \"#utility.yul\":4386:4392   */\n  dup2\n    /* \"#utility.yul\":4380:4393   */\n  mload\n    /* \"#utility.yul\":4411:4526   */\n  tag_119\n    /* \"#utility.yul\":4522:4525   */\n  dup5\n    /* \"#utility.yul\":4514:4520   */\n  dup3\n    /* \"#utility.yul\":4507:4511   */\n  0x20\n    /* \"#utility.yul\":4499:4505   */\n  dup7\n    /* \"#utility.yul\":4495:4512   */\n  add\n    /* \"#utility.yul\":4411:4526   */\n  tag_24\n  jump\t// in\ntag_119:\n    /* \"#utility.yul\":4402:4526   */\n  swap2\n  pop\n    /* \"#utility.yul\":4225:4532   */\n  pop\n    /* \"#utility.yul\":4127:4532   */\n  swap3\n  swap2\n  pop\n  pop\n  jump\t// out\n    /* \"#utility.yul\":4538:5112   */\ntag_3:\n    /* \"#utility.yul\":4643:4649   */\n  0x00\n    /* \"#utility.yul\":4692:4694   */\n  0x20\n    /* \"#utility.yul\":4680:4689   */\n  dup3\n    /* \"#utility.yul\":4671:4678   */\n  dup5\n    /* \"#utility.yul\":4667:4690   */\n  sub\n    /* \"#utility.yul\":4663:4695   */\n  slt\n    /* \"#utility.yul\":4660:4779   */\n  iszero\n  tag_121\n  jumpi\n    /* \"#utility.yul\":4698:4777   */\n  tag_122\n  tag_10\n  jump\t// in\ntag_122:\n    /* \"#utility.yul\":4660:4779   */\ntag_121:\n    /* \"#utility.yul\":4839:4840   */\n  0x00\n    /* \"#utility.yul\":4828:4837   */\n  dup3\n    /* \"#utility.yul\":4824:4841   */\n  add\n    /* \"#utility.yul\":4818:4842   */\n  mload\n    /* \"#utility.yul\":4869:4887   */\n  0xffffffffffffffff\n    /* \"#utility.yul\":4861:4867   */\n  dup2\n    /* \"#utility.yul\":4858:4888   */\n  gt\n    /* \"#utility.yul\":4855:4972   */\n  iszero\n  tag_123\n  jumpi\n    /* \"#utility.yul\":4891:4970   */\n  tag_124\n  tag_11\n  jump\t// in\ntag_124:\n    /* \"#utility.yul\":4855:4972   */\ntag_123:\n    /* \"#utility.yul\":4996:5095   */\n  tag_125\n    /* \"#utility.yul\":5087:5094   */\n  dup5\n    /* \"#utility.yul\":5078:5084   */\n  dup3\n    /* \"#utility.yul\":5067:5076   */\n  dup6\n    /* \"#utility.yul\":5063:5085   */\n  add\n    /* \"#utility.yul\":4996:5095   */\n  tag_25\n  jump\t// in\ntag_125:\n    /* \"#utility.yul\":4986:5095   */\n  swap2\n  pop\n    /* \"#utility.yul\":4789:5105   */\n  pop\n    /* \"#utility.yul\":4538:5112   */\n  swap3\n  swap2\n  pop\n  pop\n  jump\t// out\n    /* \"#utility.yul\":5118:5260   */\ntag_26:\n    /* \"#utility.yul\":5195:5199   */\n  0x00\n    /* \"#utility.yul\":5218:5221   */\n  dup2\n    /* \"#utility.yul\":5210:5221   */\n  swap1\n  pop\n    /* \"#utility.yul\":5248:5252   */\n  0x20\n    /* \"#utility.yul\":5243:5246   */\n  dup3\n    /* \"#utility.yul\":5239:5253   */\n  add\n    /* \"#utility.yul\":5231:5253   */\n  swap1\n  pop\n    /* \"#utility.yul\":5118:5260   */\n  swap2\n  swap1\n  pop\n  jump\t// out\n    /* \"#utility.yul\":5266:5384   */\ntag_27:\n    /* \"#utility.yul\":5337:5343   */\n  0x00\n    /* \"#utility.yul\":5371:5376   */\n  dup2\n    /* \"#utility.yul\":5365:5377   */\n  sload\n    /* \"#utility.yul\":5355:5377   */\n  swap1\n  pop\n    /* \"#utility.yul\":5266:5384   */\n  swap2\n  swap1\n  pop\n  jump\t// out\n    /* \"#utility.yul\":5390:5467   */\ntag_28:\n    /* \"#utility.yul\":5427:5434   */\n  0x00\n    /* \"#utility.yul\":5456:5461   */\n  dup2\n    /* \"#utility.yul\":5445:5461   */\n  swap1\n  pop\n    /* \"#utility.yul\":5390:5467   */\n  swap2\n  swap1\n  pop\n  jump\t// out\n    /* \"#utility.yul\":6075:6285   */\ntag_31:\n    /* \"#utility.yul\":6163:6167   */\n  0x00\n    /* \"#utility.yul\":6186:6192   */\n  dup2\n    /* \"#utility.yul\":6178:6192   */\n  swap1\n  pop\n    /* \"#utility.yul\":6276:6277   */\n  0x01\n    /* \"#utility.yul\":6271:6272   */\n  dup1\n    /* \"#utility.yul\":6268:6269   */\n  0x01\n    /* \"#utility.yul\":6264:6273   */\n  sub\n    /* \"#utility.yul\":6256:6262   */\n  dup4\n    /* \"#utility.yul\":6252:6274   */\n  add\n    /* \"#utility.yul\":6248:6278   */\n  div\n    /* \"#utility.yul\":6240:6278   */\n  swap1\n  pop\n    /* \"#utility.yul\":6075:6285   */\n  swap2\n  swap1\n  pop\n  jump\t// out\n    /* \"#utility.yul\":6290:6453   */\ntag_32:\n    /* \"#utility.yul\":6361:6365   */\n  0x00\n    /* \"#utility.yul\":6384:6387   */\n  dup2\n    /* \"#utility.yul\":6376:6387   */\n  swap1\n  pop\n    /* \"#utility.yul\":6407:6410   */\n  dup2\n    /* \"#utility.yul\":6404:6405   */\n  0x00\n    /* \"#utility.yul\":6397:6411   */\n  mstore\n    /* \"#utility.yul\":6441:6445   */\n  0x20\n    /* \"#utility.yul\":6438:6439   */\n  0x00\n    /* \"#utility.yul\":6428:6446   */\n  keccak256\n    /* \"#utility.yul\":6420:6446   */\n  swap1\n  pop\n    /* \"#utility.yul\":6290:6453   */\n  swap2\n  swap1\n  pop\n  jump\t// out\n    /* \"#utility.yul\":6459:6639   */\ntag_33:\n    /* \"#utility.yul\":6507:6584   */\n  0x4e487b7100000000000000000000000000000000000000000000000000000000\n    /* \"#utility.yul\":6504:6505   */\n  0x00\n    /* \"#utility.yul\":6497:6585   */\n  mstore\n    /* \"#utility.yul\":6604:6608   */\n  0x22\n    /* \"#utility.yul\":6601:6602   */\n  0x04\n    /* \"#utility.yul\":6594:6609   */\n  mstore\n    /* \"#utility.yul\":6628:6632   */\n  0x24\n    /* \"#utility.yul\":6625:6626   */\n  0x00\n    /* \"#utility.yul\":6618:6633   */\n  revert\n    /* \"#utility.yul\":6645:6965   */\ntag_34:\n    /* \"#utility.yul\":6689:6695   */\n  0x00\n    /* \"#utility.yul\":6726:6727   */\n  0x02\n    /* \"#utility.yul\":6720:6724   */\n  dup3\n    /* \"#utility.yul\":6716:6728   */\n  div\n    /* \"#utility.yul\":6706:6728   */\n  swap1\n  pop\n    /* \"#utility.yul\":6773:6774   */\n  0x01\n    /* \"#utility.yul\":6767:6771   */\n  dup3\n    /* \"#utility.yul\":6763:6775   */\n  and\n    /* \"#utility.yul\":6794:6812   */\n  dup1\n    /* \"#utility.yul\":6784:6865   */\n  tag_140\n  jumpi\n    /* \"#utility.yul\":6850:6854   */\n  0x7f\n    /* \"#utility.yul\":6842:6848   */\n  dup3\n    /* \"#utility.yul\":6838:6855   */\n  and\n    /* \"#utility.yul\":6828:6855   */\n  swap2\n  pop\n    /* \"#utility.yul\":6784:6865   */\ntag_140:\n    /* \"#utility.yul\":6912:6914   */\n  0x20\n    /* \"#utility.yul\":6904:6910   */\n  dup3\n    /* \"#utility.yul\":6901:6915   */\n  lt\n    /* \"#utility.yul\":6881:6899   */\n  dup2\n    /* \"#utility.yul\":6878:6916   */\n  sub\n    /* \"#utility.yul\":6875:6959   */\n  tag_141\n  jumpi\n    /* \"#utility.yul\":6931:6949   */\n  tag_142\n  tag_33\n  jump\t// in\ntag_142:\n    /* \"#utility.yul\":6875:6959   */\ntag_141:\n    /* \"#utility.yul\":6696:6965   */\n  pop\n    /* \"#utility.yul\":6645:6965   */\n  swap2\n  swap1\n  pop\n  jump\t// out\n    /* \"#utility.yul\":6971:7112   */\ntag_35:\n    /* \"#utility.yul\":7020:7024   */\n  0x00\n    /* \"#utility.yul\":7043:7046   */\n  dup2\n    /* \"#utility.yul\":7035:7046   */\n  swap1\n  pop\n    /* \"#utility.yul\":7066:7069   */\n  dup2\n    /* \"#utility.yul\":7063:7064   */\n  0x00\n    /* \"#utility.yul\":7056:7070   */\n  mstore\n    /* \"#utility.yul\":7100:7104   */\n  0x20\n    /* \"#utility.yul\":7097:7098   */\n  0x00\n    /* \"#utility.yul\":7087:7105   */\n  keccak256\n    /* \"#utility.yul\":7079:7105   */\n  swap1\n  pop\n    /* \"#utility.yul\":6971:7112   */\n  swap2\n  swap1\n  pop\n  jump\t// out\n    /* \"#utility.yul\":7118:7235   */\ntag_36:\n    /* \"#utility.yul\":7172:7180   */\n  0x00\n    /* \"#utility.yul\":7222:7227   */\n  dup3\n    /* \"#utility.yul\":7216:7220   */\n  dup3\n    /* \"#utility.yul\":7212:7228   */\n  shr\n    /* \"#utility.yul\":7191:7228   */\n  swap1\n  pop\n    /* \"#utility.yul\":7118:7235   */\n  swap3\n  swap2\n  pop\n  pop\n  jump\t// out\n    /* \"#utility.yul\":7241:7485   */\ntag_37:\n    /* \"#utility.yul\":7313:7434   */\n  tag_146\n    /* \"#utility.yul\":7367:7433   */\n  0xffffffffffffffffffffffffffffffffffffffffffffffffffffffffffffffff\n    /* \"#utility.yul\":7357:7363   */\n  dup4\n    /* \"#utility.yul\":7353:7355   */\n  0x20\n    /* \"#utility.yul\":7349:7364   */\n  sub\n    /* \"#utility.yul\":7346:7347   */\n  0x08\n    /* \"#utility.yul\":7342:7365   */\n  mul\n    /* \"#utility.yul\":7313:7434   */\n  tag_36\n  jump\t// in\ntag_146:\n    /* \"#utility.yul\":7472:7476   */\n  dup2\n    /* \"#utility.yul\":7466:7477   */\n  sload\n    /* \"#utility.yul\":7460:7464   */\n  dup2\n    /* \"#utility.yul\":7456:7478   */\n  and\n    /* \"#utility.yul\":7450:7454   */\n  dup3\n    /* \"#utility.yul\":7443:7479   */\n  sstore\n    /* \"#utility.yul\":7291:7485   */\n  pop\n    /* \"#utility.yul\":7241:7485   */\n  pop\n  pop\n  jump\t// out\n    /* \"#utility.yul\":7491:7598   */\ntag_38:\n    /* \"#utility.yul\":7535:7543   */\n  0x00\n    /* \"#utility.yul\":7585:7590   */\n  dup3\n    /* \"#utility.yul\":7579:7583   */\n  dup3\n    /* \"#utility.yul\":7575:7591   */\n  shl\n    /* \"#utility.yul\":7554:7591   */\n  swap1\n  pop\n    /* \"#utility.yul\":7491:7598   */\n  swap3\n  swap2\n  pop\n  pop\n  jump\t// out\n    /* \"#utility.yul\":7604:7997   */\ntag_39:\n    /* \"#utility.yul\":7673:7679   */\n  0x00\n    /* \"#utility.yul\":7723:7724   */\n  0x08\n    /* \"#utility.yul\":7711:7721   */\n  dup4\n    /* \"#utility.yul\":7707:7725   */\n  mul\n    /* \"#utility.yul\":7746:7843   */\n  tag_149\n    /* \"#utility.yul\":7776:7842   */\n  0xffffffffffffffffffffffffffffffffffffffffffffffffffffffffffffffff\n    /* \"#utility.yul\":7765:7774   */\n  dup3\n    /* \"#utility.yul\":7746:7843   */\n  tag_38\n  jump\t// in\ntag_149:\n    /* \"#utility.yul\":7864:7903   */\n  tag_150\n    /* \"#utility.yul\":7894:7902   */\n  dup7\n    /* \"#utility.yul\":7883:7892   */\n  dup4\n    /* \"#utility.yul\":7864:7903   */\n  tag_38\n  jump\t// in\ntag_150:\n    /* \"#utility.yul\":7852:7903   */\n  swap6\n  pop\n    /* \"#utility.yul\":7936:7940   */\n  dup1\n    /* \"#utility.yul\":7932:7941   */\n  not\n    /* \"#utility.yul\":7925:7930   */\n  dup5\n    /* \"#utility.yul\":7921:7942   */\n  and\n    /* \"#utility.yul\":7912:7942   */\n  swap4\n  pop\n    /* \"#utility.yul\":7985:7989   */\n  dup1\n    /* \"#utility.yul\":7975:7983   */\n  dup7\n    /* \"#utility.yul\":7971:7990   */\n  and\n    /* \"#utility.yul\":7964:7969   */\n  dup5\n    /* \"#utility.yul\":7961:7991   */\n  or\n    /* \"#utility.yul\":7951:7991   */\n  swap3\n  pop\n    /* \"#utility.yul\":7680:7997   */\n  pop\n  pop\n    /* \"#utility.yul\":7604:7997   */\n  swap4\n  swap3\n  pop\n  pop\n  pop\n  jump\t// out\n    /* \"#utility.yul\":8003:8063   */\ntag_40:\n    /* \"#utility.yul\":8031:8034   */\n  0x00\n    /* \"#utility.yul\":8052:8057   */\n  dup2\n    /* \"#utility.yul\":8045:8057   */\n  swap1\n  pop\n    /* \"#utility.yul\":8003:8063   */\n  swap2\n  swap1\n  pop\n  jump\t// out\n    /* \"#utility.yul\":8069:8211   */\ntag_41:\n    /* \"#utility.yul\":8119:8128   */\n  0x00\n    /* \"#utility.yul\":8152:8205   */\n  tag_153\n    /* \"#utility.yul\":8170:8204   */\n  tag_154\n    /* \"#utility.yul\":8179:8203   */\n  tag_155\n    /* \"#utility.yul\":8197:8202   */\n  dup5\n    /* \"#utility.yul\":8179:8203   */\n  tag_28\n  jump\t// in\ntag_155:\n    /* \"#utility.yul\":8170:8204   */\n  tag_40\n  jump\t// in\ntag_154:\n    /* \"#utility.yul\":8152:8205   */\n  tag_28\n  jump\t// in\ntag_153:\n    /* \"#utility.yul\":8139:8205   */\n  swap1\n  pop\n    /* \"#utility.yul\":8069:8211   */\n  swap2\n  swap1\n  pop\n  jump\t// out\n    /* \"#utility.yul\":8217:8292   */\ntag_42:\n    /* \"#utility.yul\":8260:8263   */\n  0x00\n    /* \"#utility.yul\":8281:8286   */\n  dup2\n    /* \"#utility.yul\":8274:8286   */\n  swap1\n  pop\n    /* \"#utility.yul\":8217:8292   */\n  swap2\n  swap1\n  pop\n  jump\t// out\n    /* \"#utility.yul\":8298:8567   */\ntag_43:\n    /* \"#utility.yul\":8408:8447   */\n  tag_158\n    /* \"#utility.yul\":8439:8446   */\n  dup4\n    /* \"#utility.yul\":8408:8447   */\n  tag_41\n  jump\t// in\ntag_158:\n    /* \"#utility.yul\":8469:8560   */\n  tag_159\n    /* \"#utility.yul\":8518:8559   */\n  tag_160\n    /* \"#utility.yul\":8542:8558   */\n  dup3\n    /* \"#utility.yul\":8518:8559   */\n  tag_42\n  jump\t// in\ntag_160:\n    /* \"#utility.yul\":8510:8516   */\n  dup5\n    /* \"#utility.yul\":8503:8507   */\n  dup5\n    /* \"#utility.yul\":8497:8508   */\n  sload\n    /* \"#utility.yul\":8469:8560   */\n  tag_39\n  jump\t// in\ntag_159:\n    /* \"#utility.yul\":8463:8467   */\n  dup3\n    /* \"#utility.yul\":8456:8561   */\n  sstore\n    /* \"#utility.yul\":8374:8567   */\n  pop\n    /* \"#utility.yul\":8298:8567   */\n  pop\n  pop\n  pop\n  jump\t// out\n    /* \"#utility.yul\":8573:8646   */\ntag_44:\n    /* \"#utility.yul\":8618:8621   */\n  0x00\n    /* \"#utility.yul\":8573:8646   */\n  swap1\n  jump\t// out\n    /* \"#utility.yul\":8652:8841   */\ntag_45:\n    /* \"#utility.yul\":8729:8761   */\n  tag_163\n  tag_44\n  jump\t// in\ntag_163:\n    /* \"#utility.yul\":8770:8835   */\n  tag_164\n    /* \"#utility.yul\":8828:8834   */\n  dup2\n    /* \"#utility.yul\":8820:8826   */\n  dup5\n    /* \"#utility.yul\":8814:8818   */\n  dup5\n    /* \"#utility.yul\":8770:8835   */\n  tag_43\n  jump\t// in\ntag_164:\n    /* \"#utility.yul\":8705:8841   */\n  pop\n    /* \"#utility.yul\":8652:8841   */\n  pop\n  pop\n  jump\t// out\n    /* \"#utility.yul\":8847:9061   */\ntag_46:\n    /* \"#utility.yul\":8932:8933   */\n  0x00\n    /* \"#utility.yul\":8917:9055   */\ntag_166:\n    /* \"#utility.yul\":8942:8951   */\n  dup3\n    /* \"#utility.yul\":8939:8940   */\n  dup2\n    /* \"#utility.yul\":8936:8952   */\n  lt\n    /* \"#utility.yul\":8917:9055   */\n  iszero\n  tag_168\n  jumpi\n    /* \"#utility.yul\":8994:9045   */\n  tag_169\n    /* \"#utility.yul\":9043:9044   */\n  0x00\n    /* \"#utility.yul\":9039:9040   */\n  dup3\n    /* \"#utility.yul\":9028:9037   */\n  dup5\n    /* \"#utility.yul\":9024:9041   */\n  add\n    /* \"#utility.yul\":8994:9045   */\n  tag_45\n  jump\t// in\ntag_169:\n    /* \"#utility.yul\":8967:8968   */\n  0x01\n    /* \"#utility.yul\":8964:8965   */\n  dup2\n    /* \"#utility.yul\":8960:8969   */\n  add\n    /* \"#utility.yul\":8955:8969   */\n  swap1\n  pop\n    /* \"#utility.yul\":8917:9055   */\n  jump(tag_166)\ntag_168:\n    /* \"#utility.yul\":8921:8935   */\n  pop\n    /* \"#utility.yul\":8847:9061   */\n  pop\n  pop\n  jump\t// out\n    /* \"#utility.yul\":9067:9236   */\ntag_47:\n    /* \"#utility.yul\":9111:9117   */\n  0x00\n    /* \"#utility.yul\":9144:9195   */\n  tag_171\n    /* \"#utility.yul\":9192:9193   */\n  0x00\n    /* \"#utility.yul\":9188:9194   */\n  not\n    /* \"#utility.yul\":9180:9185   */\n  dup5\n    /* \"#utility.yul\":9177:9178   */\n  0x08\n    /* \"#utility.yul\":9173:9186   */\n  mul\n    /* \"#utility.yul\":9144:9195   */\n  tag_36\n  jump\t// in\ntag_171:\n    /* \"#utility.yul\":9140:9196   */\n  not\n    /* \"#utility.yul\":9225:9229   */\n  dup1\n    /* \"#utility.yul\":9219:9223   */\n  dup4\n    /* \"#utility.yul\":9215:9230   */\n  and\n    /* \"#utility.yul\":9205:9230   */\n  swap2\n  pop\n    /* \"#utility.yul\":9118:9236   */\n  pop\n    /* \"#utility.yul\":9067:9236   */\n  swap3\n  swap2\n  pop\n  pop\n  jump\t// out\n    /* \"#utility.yul\":9241:9536   */\ntag_48:\n    /* \"#utility.yul\":9317:9321   */\n  0x00\n    /* \"#utility.yul\":9463:9492   */\n  tag_173\n    /* \"#utility.yul\":9488:9491   */\n  dup4\n    /* \"#utility.yul\":9482:9486   */\n  dup4\n    /* \"#utility.yul\":9463:9492   */\n  tag_47\n  jump\t// in\ntag_173:\n    /* \"#utility.yul\":9455:9492   */\n  swap2\n  pop\n    /* \"#utility.yul\":9525:9528   */\n  dup3\n    /* \"#utility.yul\":9522:9523   */\n  0x02\n    /* \"#utility.yul\":9518:9529   */\n  mul\n    /* \"#utility.yul\":9512:9516   */\n  dup3\n    /* \"#utility.yul\":9509:9530   */\n  or\n    /* \"#utility.yul\":9501:9530   */\n  swap1\n  pop\n    /* \"#utility.yul\":9241:9536   */\n  swap3\n  swap2\n  pop\n  pop\n  jump\t// out\n    /* \"#utility.yul\":9541:9971   */\ntag_49:\n    /* \"#utility.yul\":9778:9816   */\n  tag_175\n    /* \"#utility.yul\":9810:9815   */\n  dup2\n    /* \"#utility.yul\":9778:9816   */\n  tag_35\n  jump\t// in\ntag_175:\n    /* \"#utility.yul\":9837:9910   */\n  tag_176\n    /* \"#utility.yul\":9906:9909   */\n  dup4\n    /* \"#utility.yul\":9896:9903   */\n  dup3\n    /* \"#utility.yul\":9890:9904   */\n  sload\n    /* \"#utility.yul\":9837:9910   */\n  tag_48\n  jump\t// in\ntag_176:\n    /* \"#utility.yul\":9933:9937   */\n  dup1\n    /* \"#utility.yul\":9926:9931   */\n  dup4\n    /* \"#utility.yul\":9919:9938   */\n  sstore\n    /* \"#utility.yul\":9963:9964   */\n  0x00\n    /* \"#utility.yul\":9954:9961   */\n  dup3\n    /* \"#utility.yul\":9947:9965   */\n  sstore\n    /* \"#utility.yul\":9612:9971   */\n  pop\n  pop\n    /* \"#utility.yul\":9541:9971   */\n  pop\n  pop\n  jump\t// out\n    /* \"#utility.yul\":9976:10069   */\ntag_50:\n    /* \"#utility.yul\":10013:10019   */\n  0x00\n    /* \"#utility.yul\":10060:10062   */\n  0x20\n    /* \"#utility.yul\":10055:10057   */\n  0x1f\n    /* \"#utility.yul\":10048:10053   */\n  dup4\n    /* \"#utility.yul\":10044:10058   */\n  add\n    /* \"#utility.yul\":10040:10063   */\n  div\n    /* \"#utility.yul\":10030:10063   */\n  swap1\n  pop\n    /* \"#utility.yul\":9976:10069   */\n  swap2\n  swap1\n  pop\n  jump\t// out\n    /* \"#utility.yul\":10075:11840   */\ntag_51:\n    /* \"#utility.yul\":10183:10185   */\n  0x20\n    /* \"#utility.yul\":10175:10181   */\n  dup5\n    /* \"#utility.yul\":10172:10186   */\n  lt\n    /* \"#utility.yul\":10201:10202   */\n  0x00\n    /* \"#utility.yul\":10195:11130   */\n  dup2\n  eq\n  tag_180\n  jumpi\n    /* \"#utility.yul\":11179:11181   */\n  0x1f\n    /* \"#utility.yul\":11171:11177   */\n  dup5\n    /* \"#utility.yul\":11168:11182   */\n  gt\n    /* \"#utility.yul\":11200:11201   */\n  0x01\n    /* \"#utility.yul\":11195:11690   */\n  dup2\n  eq\n  tag_182\n  jumpi\n    /* \"#utility.yul\":11743:11809   */\n  tag_183\n    /* \"#utility.yul\":11802:11808   */\n  dup7\n    /* \"#utility.yul\":11796:11800   */\n  dup6\n    /* \"#utility.yul\":11743:11809   */\n  tag_48\n  jump\t// in\ntag_183:\n    /* \"#utility.yul\":11736:11741   */\n  dup4\n    /* \"#utility.yul\":11729:11810   */\n  sstore\n    /* \"#utility.yul\":11161:11824   */\n  jump(tag_181)\n    /* \"#utility.yul\":11195:11690   */\ntag_182:\n    /* \"#utility.yul\":11242:11280   */\n  tag_184\n    /* \"#utility.yul\":11274:11279   */\n  dup4\n    /* \"#utility.yul\":11242:11280   */\n  tag_35\n  jump\t// in\ntag_184:\n    /* \"#utility.yul\":11508:11595   */\n  tag_185\n    /* \"#utility.yul\":11592:11593   */\n  0x01\n    /* \"#utility.yul\":11565:11590   */\n  tag_186\n    /* \"#utility.yul\":11583:11589   */\n  dup9\n    /* \"#utility.yul\":11565:11590   */\n  tag_50\n  jump\t// in\ntag_186:\n    /* \"#utility.yul\":11561:11594   */\n  sub\n    /* \"#utility.yul\":11557:11558   */\n  0x01\n    /* \"#utility.yul\":11541:11555   */\n  dup4\n    /* \"#utility.yul\":11537:11559   */\n  add\n    /* \"#utility.yul\":11508:11595   */\n  tag_46\n  jump\t// in\ntag_185:\n    /* \"#utility.yul\":11612:11676   */\n  tag_187\n    /* \"#utility.yul\":11669:11675   */\n  dup8\n    /* \"#utility.yul\":11662:11667   */\n  dup6\n    /* \"#utility.yul\":11612:11676   */\n  tag_49\n  jump\t// in\ntag_187:\n    /* \"#utility.yul\":11202:11690   */\n  pop\n    /* \"#utility.yul\":11161:11824   */\ntag_181:\n  pop\n    /* \"#utility.yul\":10165:11834   */\n  jump(tag_179)\n    /* \"#utility.yul\":10195:11130   */\ntag_180:\n    /* \"#utility.yul\":10521:10546   */\n  tag_188\n    /* \"#utility.yul\":10539:10545   */\n  dup6\n    /* \"#utility.yul\":10521:10546   */\n  tag_50\n  jump\t// in\ntag_188:\n    /* \"#utility.yul\":10575:10600   */\n  tag_189\n    /* \"#utility.yul\":10593:10599   */\n  dup6\n    /* \"#utility.yul\":10575:10600   */\n  tag_50\n  jump\t// in\ntag_189:\n    /* \"#utility.yul\":10635:10673   */\n  tag_190\n    /* \"#utility.yul\":10667:10672   */\n  dup5\n    /* \"#utility.yul\":10635:10673   */\n  tag_35\n  jump\t// in\ntag_190:\n    /* \"#utility.yul\":10725:10733   */\n  dup3\n    /* \"#utility.yul\":10709:10723   */\n  dup2\n    /* \"#utility.yul\":10705:10734   */\n  add\n    /* \"#utility.yul\":10845:10849   */\n  0x1f\n    /* \"#utility.yul\":10837:10843   */\n  dup10\n    /* \"#utility.yul\":10833:10850   */\n  and\n    /* \"#utility.yul\":10866:10872   */\n  dup1\n    /* \"#utility.yul\":10863:10932   */\n  iszero\n  tag_191\n  jumpi\n    /* \"#utility.yul\":10875:10930   */\n  tag_192\n    /* \"#utility.yul\":10923:10929   */\n  dup2\n    /* \"#utility.yul\":10919:10920   */\n  0x01\n    /* \"#utility.yul\":10906:10917   */\n  dup5\n    /* \"#utility.yul\":10902:10921   */\n  sub\n    /* \"#utility.yul\":10875:10930   */\n  tag_37\n  jump\t// in\ntag_192:\n    /* \"#utility.yul\":10863:10932   */\ntag_191:\n    /* \"#utility.yul\":10962:10970   */\n  dup5\n    /* \"#utility.yul\":10952:10960   */\n  dup5\n    /* \"#utility.yul\":10949:10971   */\n  gt\n    /* \"#utility.yul\":10946:11070   */\n  iszero\n  tag_193\n  jumpi\n    /* \"#utility.yul\":10990:11056   */\n  tag_194\n    /* \"#utility.yul\":11046:11054   */\n  dup6\n    /* \"#utility.yul\":11036:11044   */\n  dup6\n    /* \"#utility.yul\":11032:11055   */\n  sub\n    /* \"#utility.yul\":11019:11030   */\n  dup4\n    /* \"#utility.yul\":10990:11056   */\n  tag_46\n  jump\t// in\ntag_194:\n    /* \"#utility.yul\":10946:11070   */\ntag_193:\n    /* \"#utility.yul\":11117:11118   */\n  0x01\n    /* \"#utility.yul\":11108:11114   */\n  dup11\n    /* \"#utility.yul\":11105:11106   */\n  0x02\n    /* \"#utility.yul\":11101:11115   */\n  mul\n    /* \"#utility.yul\":11098:11119   */\n  or\n    /* \"#utility.yul\":11091:11096   */\n  dup8\n    /* \"#utility.yul\":11084:11120   */\n  sstore\n    /* \"#utility.yul\":10203:11130   */\n  pop\n  pop\n  pop\n  pop\n  pop\n    /* \"#utility.yul\":10165:11834   */\ntag_179:\n  pop\n    /* \"#utility.yul\":10075:11840   */\n  pop\n  pop\n  pop\n  pop\n  jump\t// out\n    /* \"#utility.yul\":11845:12761   */\ntag_52:\n    /* \"#utility.yul\":11950:11970   */\n  0x010000000000000000\n    /* \"#utility.yul\":11942:11948   */\n  dup5\n    /* \"#utility.yul\":11939:11971   */\n  gt\n    /* \"#utility.yul\":11936:11994   */\n  iszero\n  tag_196\n  jumpi\n    /* \"#utility.yul\":11974:11992   */\n  tag_197\n  tag_14\n  jump\t// in\ntag_197:\n    /* \"#utility.yul\":11936:11994   */\ntag_196:\n    /* \"#utility.yul\":12022:12024   */\n  0x20\n    /* \"#utility.yul\":12014:12020   */\n  dup4\n    /* \"#utility.yul\":12011:12025   */\n  lt\n    /* \"#utility.yul\":12039:12040   */\n  0x00\n    /* \"#utility.yul\":12034:12178   */\n  dup2\n  eq\n  tag_199\n  jumpi\n    /* \"#utility.yul\":12227:12229   */\n  0x20\n    /* \"#utility.yul\":12219:12225   */\n  dup6\n    /* \"#utility.yul\":12216:12230   */\n  lt\n    /* \"#utility.yul\":12248:12249   */\n  0x00\n    /* \"#utility.yul\":12243:12534   */\n  dup2\n  eq\n  tag_201\n  jumpi\n    /* \"#utility.yul\":12663:12729   */\n  tag_202\n    /* \"#utility.yul\":12722:12728   */\n  dup7\n    /* \"#utility.yul\":12716:12720   */\n  dup6\n    /* \"#utility.yul\":12663:12729   */\n  tag_48\n  jump\t// in\ntag_202:\n    /* \"#utility.yul\":12656:12661   */\n  dup4\n    /* \"#utility.yul\":12649:12730   */\n  sstore\n    /* \"#utility.yul\":12209:12744   */\n  jump(tag_200)\n    /* \"#utility.yul\":12243:12534   */\ntag_201:\n    /* \"#utility.yul\":12392:12396   */\n  dup4\n    /* \"#utility.yul\":12385:12389   */\n  0xff\n    /* \"#utility.yul\":12381:12390   */\n  not\n    /* \"#utility.yul\":12377:12397   */\n  and\n    /* \"#utility.yul\":12369:12397   */\n  swap4\n  pop\n    /* \"#utility.yul\":12461:12465   */\n  dup4\n    /* \"#utility.yul\":12421:12459   */\n  tag_203\n    /* \"#utility.yul\":12453:12458   */\n  dup5\n    /* \"#utility.yul\":12421:12459   */\n  tag_35\n  jump\t// in\ntag_203:\n    /* \"#utility.yul\":12414:12466   */\n  sstore\n    /* \"#utility.yul\":12517:12518   */\n  0x01\n    /* \"#utility.yul\":12508:12514   */\n  dup7\n    /* \"#utility.yul\":12505:12506   */\n  0x02\n    /* \"#utility.yul\":12501:12515   */\n  mul\n    /* \"#utility.yul\":12497:12519   */\n  add\n    /* \"#utility.yul\":12490:12495   */\n  dup4\n    /* \"#utility.yul\":12483:12520   */\n  sstore\n    /* \"#utility.yul\":12209:12744   */\ntag_200:\n  pop\n    /* \"#utility.yul\":12004:12754   */\n  jump(tag_198)\n    /* \"#utility.yul\":12034:12178   */\ntag_199:\n    /* \"#utility.yul\":12165:12166   */\n  0x01\n    /* \"#utility.yul\":12156:12162   */\n  dup6\n    /* \"#utility.yul\":12153:12154   */\n  0x02\n    /* \"#utility.yul\":12149:12163   */\n  mul\n    /* \"#utility.yul\":12145:12167   */\n  add\n    /* \"#utility.yul\":12138:12143   */\n  dup3\n    /* \"#utility.yul\":12131:12168   */\n  sstore\n    /* \"#utility.yul\":12004:12754   */\ntag_198:\n  pop\n    /* \"#utility.yul\":11845:12761   */\n  pop\n  pop\n  pop\n  pop\n  jump\t// out\n    /* \"#utility.yul\":12767:13169   */\ntag_53:\n    /* \"#utility.yul\":12850:12855   */\n  dup1\n    /* \"#utility.yul\":12844:12856   */\n  sload\n    /* \"#utility.yul\":12879:12910   */\n  tag_205\n    /* \"#utility.yul\":12905:12909   */\n  dup2\n    /* \"#utility.yul\":12879:12910   */\n  tag_34\n  jump\t// in\ntag_205:\n    /* \"#utility.yul\":12934:12940   */\n  dup1\n    /* \"#utility.yul\":12926:12932   */\n  dup5\n    /* \"#utility.yul\":12923:12941   */\n  gt\n    /* \"#utility.yul\":12920:13036   */\n  iszero\n  tag_206\n  jumpi\n    /* \"#utility.yul\":12956:13026   */\n  tag_207\n    /* \"#utility.yul\":13019:13025   */\n  dup5\n    /* \"#utility.yul\":13011:13017   */\n  dup3\n    /* \"#utility.yul\":13005:13009   */\n  dup5\n    /* \"#utility.yul\":12998:13003   */\n  dup7\n    /* \"#utility.yul\":12956:13026   */\n  tag_52\n  jump\t// in\ntag_207:\n    /* \"#utility.yul\":12920:13036   */\ntag_206:\n    /* \"#utility.yul\":13060:13066   */\n  dup1\n    /* \"#utility.yul\":13052:13058   */\n  dup5\n    /* \"#utility.yul\":13049:13067   */\n  lt\n    /* \"#utility.yul\":13046:13162   */\n  iszero\n  tag_208\n  jumpi\n    /* \"#utility.yul\":13082:13152   */\n  tag_209\n    /* \"#utility.yul\":13145:13151   */\n  dup5\n    /* \"#utility.yul\":13137:13143   */\n  dup3\n    /* \"#utility.yul\":13131:13135   */\n  dup5\n    /* \"#utility.yul\":13124:13129   */\n  dup7\n    /* \"#utility.yul\":13082:13152   */\n  tag_51\n  jump\t// in\ntag_209:\n    /* \"#utility.yul\":13046:13162   */\ntag_208:\n    /* \"#utility.yul\":12821:13169   */\n  pop\n  pop\n    /* \"#utility.yul\":12767:13169   */\n  pop\n  pop\n  jump\t// out\n    /* \"#utility.yul\":13246:13384   */\ntag_211:\n    /* \"#utility.yul\":13271:13280   */\n  dup3\n    /* \"#utility.yul\":13268:13269   */\n  dup2\n    /* \"#utility.yul\":13265:13281   */\n  lt\n    /* \"#utility.yul\":13246:13384   */\n  iszero\n  tag_213\n  jumpi\n    /* \"#utility.yul\":13323:13374   */\n  tag_214\n    /* \"#utility.yul\":13372:13373   */\n  0x00\n    /* \"#utility.yul\":13368:13369   */\n  dup3\n    /* \"#utility.yul\":13357:13366   */\n  dup5\n    /* \"#utility.yul\":13353:13370   */\n  add\n    /* \"#utility.yul\":13323:13374   */\n  tag_45\n  jump\t// in\ntag_214:\n    /* \"#utility.yul\":13296:13297   */\n  0x01\n    /* \"#utility.yul\":13293:13294   */\n  dup2\n    /* \"#utility.yul\":13289:13298   */\n  add\n    /* \"#utility.yul\":13284:13298   */\n  swap1\n  pop\n    /* \"#utility.yul\":13246:13384   */\n  jump(tag_211)\ntag_213:\n    /* \"#utility.yul\":13250:13264   */\n  pop\n    /* \"#utility.yul\":13175:13390   */\n  pop\n  pop\n  jump\t// out\n    /* \"#utility.yul\":13591:13699   */\ntag_56:\n    /* \"#utility.yul\":13654:13692   */\n  tag_217\n    /* \"#utility.yul\":13690:13691   */\n  0x00\n    /* \"#utility.yul\":13684:13688   */\n  dup3\n    /* \"#utility.yul\":13654:13692   */\n  tag_53\n  jump\t// in\ntag_217:\n    /* \"#utility.yul\":13591:13699   */\n  pop\n  jump\t// out\n    /* \"#utility.yul\":13705:13885   */\ntag_57:\n    /* \"#utility.yul\":13753:13830   */\n  0x4e487b7100000000000000000000000000000000000000000000000000000000\n    /* \"#utility.yul\":13750:13751   */\n  0x00\n    /* \"#utility.yul\":13743:13831   */\n  mstore\n    /* \"#utility.yul\":13850:13854   */\n  0x00\n    /* \"#utility.yul\":13847:13848   */\n  0x04\n    /* \"#utility.yul\":13840:13855   */\n  mstore\n    /* \"#utility.yul\":13874:13878   */\n  0x24\n    /* \"#utility.yul\":13871:13872   */\n  0x00\n    /* \"#utility.yul\":13864:13879   */\n  revert\n    /* \"#utility.yul\":13891:14065   */\ntag_58:\n    /* \"#utility.yul\":13982:13983   */\n  0x00\n    /* \"#utility.yul\":13974:13980   */\n  dup3\n    /* \"#utility.yul\":13971:13984   */\n  eq\n    /* \"#utility.yul\":13961:14008   */\n  tag_220\n  jumpi\n    /* \"#utility.yul\":13988:14006   */\n  tag_221\n  tag_57\n  jump\t// in\ntag_221:\n    /* \"#utility.yul\":13961:14008   */\ntag_220:\n    /* \"#utility.yul\":14017:14059   */\n  tag_222\n    /* \"#utility.yul\":14054:14058   */\n  dup2\n    /* \"#utility.yul\":14017:14059   */\n  tag_56\n  jump\t// in\ntag_222:\n    /* \"#utility.yul\":13891:14065   */\n  pop\n  pop\n  jump\t// out\n    /* \"#utility.yul\":14071:14300   */\ntag_59:\n    /* \"#utility.yul\":14164:14165   */\n  0x00\n    /* \"#utility.yul\":14149:14294   */\ntag_224:\n    /* \"#utility.yul\":14174:14183   */\n  dup3\n    /* \"#utility.yul\":14171:14172   */\n  dup2\n    /* \"#utility.yul\":14168:14184   */\n  lt\n    /* \"#utility.yul\":14149:14294   */\n  iszero\n  tag_226\n  jumpi\n    /* \"#utility.yul\":14226:14284   */\n  tag_227\n    /* \"#utility.yul\":14282:14283   */\n  0x00\n    /* \"#utility.yul\":14278:14279   */\n  dup3\n    /* \"#utility.yul\":14267:14276   */\n  dup5\n    /* \"#utility.yul\":14263:14280   */\n  add\n    /* \"#utility.yul\":14226:14284   */\n  tag_58\n  jump\t// in\ntag_227:\n    /* \"#utility.yul\":14199:14200   */\n  0x01\n    /* \"#utility.yul\":14196:14197   */\n  dup2\n    /* \"#utility.yul\":14192:14201   */\n  add\n    /* \"#utility.yul\":14187:14201   */\n  swap1\n  pop\n    /* \"#utility.yul\":14149:14294   */\n  jump(tag_224)\ntag_226:\n    /* \"#utility.yul\":14153:14167   */\n  pop\n    /* \"#utility.yul\":14071:14300   */\n  pop\n  pop\n  jump\t// out\n    /* \"#utility.yul\":14306:14981   */\ntag_60:\n    /* \"#utility.yul\":14433:14436   */\n  dup2\n    /* \"#utility.yul\":14421:14431   */\n  dup4\n    /* \"#utility.yul\":14418:14437   */\n  lt\n    /* \"#utility.yul\":14415:14974   */\n  iszero\n  tag_229\n  jumpi\n    /* \"#utility.yul\":14524:14596   */\n  tag_230\n    /* \"#utility.yul\":14592:14595   */\n  dup3\n    /* \"#utility.yul\":14524:14596   */\n  tag_31\n  jump\t// in\ntag_230:\n    /* \"#utility.yul\":14629:14708   */\n  tag_231\n    /* \"#utility.yul\":14697:14707   */\n  dup5\n    /* \"#utility.yul\":14629:14708   */\n  tag_31\n  jump\t// in\ntag_231:\n    /* \"#utility.yul\":14743:14803   */\n  tag_232\n    /* \"#utility.yul\":14797:14802   */\n  dup4\n    /* \"#utility.yul\":14743:14803   */\n  tag_32\n  jump\t// in\ntag_232:\n    /* \"#utility.yul\":14855:14867   */\n  dup2\n    /* \"#utility.yul\":14839:14853   */\n  dup2\n    /* \"#utility.yul\":14835:14868   */\n  add\n    /* \"#utility.yul\":14882:14964   */\n  tag_233\n    /* \"#utility.yul\":14950:14962   */\n  dup4\n    /* \"#utility.yul\":14936:14948   */\n  dup6\n    /* \"#utility.yul\":14932:14963   */\n  sub\n    /* \"#utility.yul\":14919:14930   */\n  dup3\n    /* \"#utility.yul\":14882:14964   */\n  tag_59\n  jump\t// in\ntag_233:\n    /* \"#utility.yul\":14438:14974   */\n  pop\n  pop\n  pop\n  pop\n    /* \"#utility.yul\":14415:14974   */\ntag_229:\n    /* \"#utility.yul\":14306:14981   */\n  pop\n  pop\n  pop\n  jump\t// out\n    /* \"#utility.yul\":14987:15396   */\ntag_61:\n    /* \"#utility.yul\":15087:15107   */\n  0x010000000000000000\n    /* \"#utility.yul\":15079:15085   */\n  dup3\n    /* \"#utility.yul\":15076:15108   */\n  gt\n    /* \"#utility.yul\":15073:15151   */\n  iszero\n  tag_235\n  jumpi\n    /* \"#utility.yul\":15123:15141   */\n  tag_236\n  tag_14\n  jump\t// in\ntag_236:\n    /* \"#utility.yul\":15073:15151   */\ntag_235:\n    /* \"#utility.yul\":15175:15233   */\n  tag_237\n    /* \"#utility.yul\":15227:15232   */\n  dup2\n    /* \"#utility.yul\":15175:15233   */\n  tag_27\n  jump\t// in\ntag_237:\n    /* \"#utility.yul\":15285:15291   */\n  dup3\n    /* \"#utility.yul\":15278:15283   */\n  dup3\n    /* \"#utility.yul\":15271:15292   */\n  sstore\n    /* \"#utility.yul\":15302:15389   */\n  tag_238\n    /* \"#utility.yul\":15382:15388   */\n  dup4\n    /* \"#utility.yul\":15374:15380   */\n  dup3\n    /* \"#utility.yul\":15367:15372   */\n  dup5\n    /* \"#utility.yul\":15302:15389   */\n  tag_60\n  jump\t// in\ntag_238:\n    /* \"#utility.yul\":15063:15396   */\n  pop\n    /* \"#utility.yul\":14987:15396   */\n  pop\n  pop\n  jump\t// out\n    /* \"#utility.yul\":15401:15525   */\ntag_62:\n    /* \"#utility.yul\":15478:15484   */\n  0x00\n    /* \"#utility.yul\":15512:15517   */\n  dup2\n    /* \"#utility.yul\":15506:15518   */\n  mload\n    /* \"#utility.yul\":15496:15518   */\n  swap1\n  pop\n    /* \"#utility.yul\":15401:15525   */\n  swap2\n  swap1\n  pop\n  jump\t// out\n    /* \"#utility.yul\":15531:15631   */\ntag_63:\n    /* \"#utility.yul\":15587:15592   */\n  0x00\n    /* \"#utility.yul\":15618:15624   */\n  dup2\n    /* \"#utility.yul\":15612:15625   */\n  mload\n    /* \"#utility.yul\":15603:15625   */\n  swap1\n  pop\n    /* \"#utility.yul\":15531:15631   */\n  swap2\n  swap1\n  pop\n  jump\t// out\n    /* \"#utility.yul\":15637:15736   */\ntag_64:\n    /* \"#utility.yul\":15689:15695   */\n  0x00\n    /* \"#utility.yul\":15723:15728   */\n  dup2\n    /* \"#utility.yul\":15717:15729   */\n  mload\n    /* \"#utility.yul\":15707:15729   */\n  swap1\n  pop\n    /* \"#utility.yul\":15637:15736   */\n  swap2\n  swap1\n  pop\n  jump\t// out\n    /* \"#utility.yul\":15742:16488   */\ntag_65:\n    /* \"#utility.yul\":15843:15845   */\n  0x1f\n    /* \"#utility.yul\":15838:15841   */\n  dup3\n    /* \"#utility.yul\":15835:15846   */\n  gt\n    /* \"#utility.yul\":15832:16481   */\n  iszero\n  tag_243\n  jumpi\n    /* \"#utility.yul\":15872:15882   */\n  dup3\n    /* \"#utility.yul\":15867:15870   */\n  dup3\n    /* \"#utility.yul\":15864:15883   */\n  gt\n    /* \"#utility.yul\":15861:16471   */\n  iszero\n  tag_244\n  jumpi\n    /* \"#utility.yul\":15918:15956   */\n  tag_245\n    /* \"#utility.yul\":15950:15955   */\n  dup2\n    /* \"#utility.yul\":15918:15956   */\n  tag_35\n  jump\t// in\ntag_245:\n    /* \"#utility.yul\":15993:16015   */\n  tag_246\n    /* \"#utility.yul\":16011:16014   */\n  dup4\n    /* \"#utility.yul\":15993:16015   */\n  tag_50\n  jump\t// in\ntag_246:\n    /* \"#utility.yul\":16052:16081   */\n  tag_247\n    /* \"#utility.yul\":16070:16080   */\n  dup6\n    /* \"#utility.yul\":16052:16081   */\n  tag_50\n  jump\t// in\ntag_247:\n    /* \"#utility.yul\":16242:16244   */\n  0x20\n    /* \"#utility.yul\":16230:16240   */\n  dup7\n    /* \"#utility.yul\":16227:16245   */\n  lt\n    /* \"#utility.yul\":16224:16303   */\n  iszero\n  tag_248\n  jumpi\n    /* \"#utility.yul\":16284:16285   */\n  0x00\n    /* \"#utility.yul\":16268:16285   */\n  swap1\n  pop\n    /* \"#utility.yul\":16224:16303   */\ntag_248:\n    /* \"#utility.yul\":16353:16365   */\n  dup1\n    /* \"#utility.yul\":16343:16351   */\n  dup4\n    /* \"#utility.yul\":16339:16366   */\n  add\n    /* \"#utility.yul\":16383:16457   */\n  tag_249\n    /* \"#utility.yul\":16443:16455   */\n  dup3\n    /* \"#utility.yul\":16429:16441   */\n  dup5\n    /* \"#utility.yul\":16425:16456   */\n  sub\n    /* \"#utility.yul\":16412:16423   */\n  dup3\n    /* \"#utility.yul\":16383:16457   */\n  tag_46\n  jump\t// in\ntag_249:\n    /* \"#utility.yul\":15884:16471   */\n  pop\n  pop\n  pop\n  pop\n    /* \"#utility.yul\":15861:16471   */\ntag_244:\n    /* \"#utility.yul\":15832:16481   */\ntag_243:\n    /* \"#utility.yul\":15742:16488   */\n  pop\n  pop\n  pop\n  jump\t// out\n    /* \"#utility.yul\":16494:17889   */\ntag_66:\n    /* \"#utility.yul\":16611:16648   */\n  tag_251\n    /* \"#utility.yul\":16644:16647   */\n  dup3\n    /* \"#utility.yul\":16611:16648   */\n  tag_64\n  jump\t// in\ntag_251:\n    /* \"#utility.yul\":16713:16731   */\n  0xffffffffffffffff\n    /* \"#utility.yul\":16705:16711   */\n  dup2\n    /* \"#utility.yul\":16702:16732   */\n  gt\n    /* \"#utility.yul\":16699:16755   */\n  iszero\n  tag_252\n  jumpi\n    /* \"#utility.yul\":16735:16753   */\n  tag_253\n  tag_14\n  jump\t// in\ntag_253:\n    /* \"#utility.yul\":16699:16755   */\ntag_252:\n    /* \"#utility.yul\":16779:16817   */\n  tag_254\n    /* \"#utility.yul\":16811:16815   */\n  dup3\n    /* \"#utility.yul\":16805:16816   */\n  sload\n    /* \"#utility.yul\":16779:16817   */\n  tag_34\n  jump\t// in\ntag_254:\n    /* \"#utility.yul\":16864:16931   */\n  tag_255\n    /* \"#utility.yul\":16924:16930   */\n  dup3\n    /* \"#utility.yul\":16916:16922   */\n  dup3\n    /* \"#utility.yul\":16910:16914   */\n  dup6\n    /* \"#utility.yul\":16864:16931   */\n  tag_65\n  jump\t// in\ntag_255:\n    /* \"#utility.yul\":16958:16959   */\n  0x00\n    /* \"#utility.yul\":16982:16986   */\n  0x20\n    /* \"#utility.yul\":16969:16986   */\n  swap1\n  pop\n    /* \"#utility.yul\":17014:17016   */\n  0x1f\n    /* \"#utility.yul\":17006:17012   */\n  dup4\n    /* \"#utility.yul\":17003:17017   */\n  gt\n    /* \"#utility.yul\":17031:17032   */\n  0x01\n    /* \"#utility.yul\":17026:17644   */\n  dup2\n  eq\n  tag_257\n  jumpi\n    /* \"#utility.yul\":17688:17689   */\n  0x00\n    /* \"#utility.yul\":17705:17711   */\n  dup5\n    /* \"#utility.yul\":17702:17779   */\n  iszero\n  tag_258\n  jumpi\n    /* \"#utility.yul\":17754:17763   */\n  dup3\n    /* \"#utility.yul\":17749:17752   */\n  dup8\n    /* \"#utility.yul\":17745:17764   */\n  add\n    /* \"#utility.yul\":17739:17765   */\n  mload\n    /* \"#utility.yul\":17730:17765   */\n  swap1\n  pop\n    /* \"#utility.yul\":17702:17779   */\ntag_258:\n    /* \"#utility.yul\":17805:17872   */\n  tag_259\n    /* \"#utility.yul\":17865:17871   */\n  dup6\n    /* \"#utility.yul\":17858:17863   */\n  dup3\n    /* \"#utility.yul\":17805:17872   */\n  tag_48\n  jump\t// in\ntag_259:\n    /* \"#utility.yul\":17799:17803   */\n  dup7\n    /* \"#utility.yul\":17792:17873   */\n  sstore\n    /* \"#utility.yul\":17661:17883   */\n  pop\n    /* \"#utility.yul\":16996:17883   */\n  jump(tag_256)\n    /* \"#utility.yul\":17026:17644   */\ntag_257:\n    /* \"#utility.yul\":17078:17082   */\n  0x1f\n    /* \"#utility.yul\":17074:17083   */\n  not\n    /* \"#utility.yul\":17066:17072   */\n  dup5\n    /* \"#utility.yul\":17062:17084   */\n  and\n    /* \"#utility.yul\":17112:17149   */\n  tag_260\n    /* \"#utility.yul\":17144:17148   */\n  dup7\n    /* \"#utility.yul\":17112:17149   */\n  tag_35\n  jump\t// in\ntag_260:\n    /* \"#utility.yul\":17171:17172   */\n  0x00\n    /* \"#utility.yul\":17185:17393   */\ntag_261:\n    /* \"#utility.yul\":17199:17206   */\n  dup3\n    /* \"#utility.yul\":17196:17197   */\n  dup2\n    /* \"#utility.yul\":17193:17207   */\n  lt\n    /* \"#utility.yul\":17185:17393   */\n  iszero\n  tag_263\n  jumpi\n    /* \"#utility.yul\":17278:17287   */\n  dup5\n    /* \"#utility.yul\":17273:17276   */\n  dup10\n    /* \"#utility.yul\":17269:17288   */\n  add\n    /* \"#utility.yul\":17263:17289   */\n  mload\n    /* \"#utility.yul\":17255:17261   */\n  dup3\n    /* \"#utility.yul\":17248:17290   */\n  sstore\n    /* \"#utility.yul\":17329:17330   */\n  0x01\n    /* \"#utility.yul\":17321:17327   */\n  dup3\n    /* \"#utility.yul\":17317:17331   */\n  add\n    /* \"#utility.yul\":17307:17331   */\n  swap2\n  pop\n    /* \"#utility.yul\":17376:17378   */\n  0x20\n    /* \"#utility.yul\":17365:17374   */\n  dup6\n    /* \"#utility.yul\":17361:17379   */\n  add\n    /* \"#utility.yul\":17348:17379   */\n  swap5\n  pop\n    /* \"#utility.yul\":17222:17226   */\n  0x20\n    /* \"#utility.yul\":17219:17220   */\n  dup2\n    /* \"#utility.yul\":17215:17227   */\n  add\n    /* \"#utility.yul\":17210:17227   */\n  swap1\n  pop\n    /* \"#utility.yul\":17185:17393   */\n  jump(tag_261)\ntag_263:\n    /* \"#utility.yul\":17421:17427   */\n  dup7\n    /* \"#utility.yul\":17412:17419   */\n  dup4\n    /* \"#utility.yul\":17409:17428   */\n  lt\n    /* \"#utility.yul\":17406:17585   */\n  iszero\n  tag_264\n  jumpi\n    /* \"#utility.yul\":17479:17488   */\n  dup5\n    /* \"#utility.yul\":17474:17477   */\n  dup10\n    /* \"#utility.yul\":17470:17489   */\n  add\n    /* \"#utility.yul\":17464:17490   */\n  mload\n    /* \"#utility.yul\":17522:17570   */\n  tag_265\n    /* \"#utility.yul\":17564:17568   */\n  0x1f\n    /* \"#utility.yul\":17556:17562   */\n  dup10\n    /* \"#utility.yul\":17552:17569   */\n  and\n    /* \"#utility.yul\":17541:17550   */\n  dup3\n    /* \"#utility.yul\":17522:17570   */\n  tag_47\n  jump\t// in\ntag_265:\n    /* \"#utility.yul\":17514:17520   */\n  dup4\n    /* \"#utility.yul\":17507:17571   */\n  sstore\n    /* \"#utility.yul\":17429:17585   */\n  pop\n    /* \"#utility.yul\":17406:17585   */\ntag_264:\n    /* \"#utility.yul\":17631:17632   */\n  0x01\n    /* \"#utility.yul\":17627:17628   */\n  0x02\n    /* \"#utility.yul\":17619:17625   */\n  dup9\n    /* \"#utility.yul\":17615:17629   */\n  mul\n    /* \"#utility.yul\":17611:17633   */\n  add\n    /* \"#utility.yul\":17605:17609   */\n  dup9\n    /* \"#utility.yul\":17598:17634   */\n  sstore\n    /* \"#utility.yul\":17033:17644   */\n  pop\n  pop\n  pop\n    /* \"#utility.yul\":16996:17883   */\ntag_256:\n  pop\n    /* \"#utility.yul\":16586:17889   */\n  pop\n  pop\n  pop\n    /* \"#utility.yul\":16494:17889   */\n  pop\n  pop\n  jump\t// out\n    /* \"#utility.yul\":17895:18092   */\ntag_67:\n    /* \"#utility.yul\":18000:18086   */\n  tag_267\n    /* \"#utility.yul\":18078:18085   */\n  dup3\n    /* \"#utility.yul\":18072:18076   */\n  dup3\n    /* \"#utility.yul\":18000:18086   */\n  tag_66\n  jump\t// in\ntag_267:\n    /* \"#utility.yul\":17895:18092   */\n  pop\n  pop\n  jump\t// out\n    /* \"#utility.yul\":18098:18925   */\ntag_7:\n    /* \"#utility.yul\":18259:18323   */\n  tag_269\n    /* \"#utility.yul\":18317:18322   */\n  dup3\n    /* \"#utility.yul\":18259:18323   */\n  tag_62\n  jump\t// in\ntag_269:\n    /* \"#utility.yul\":18333:18398   */\n  tag_270\n    /* \"#utility.yul\":18391:18397   */\n  dup2\n    /* \"#utility.yul\":18385:18389   */\n  dup4\n    /* \"#utility.yul\":18333:18398   */\n  tag_61\n  jump\t// in\ntag_270:\n    /* \"#utility.yul\":18422:18488   */\n  tag_271\n    /* \"#utility.yul\":18482:18487   */\n  dup4\n    /* \"#utility.yul\":18422:18488   */\n  tag_26\n  jump\t// in\ntag_271:\n    /* \"#utility.yul\":18517:18576   */\n  tag_272\n    /* \"#utility.yul\":18571:18575   */\n  dup4\n    /* \"#utility.yul\":18517:18576   */\n  tag_32\n  jump\t// in\ntag_272:\n    /* \"#utility.yul\":18601:18602   */\n  0x00\n    /* \"#utility.yul\":18586:18919   */\ntag_273:\n    /* \"#utility.yul\":18611:18617   */\n  dup4\n    /* \"#utility.yul\":18608:18609   */\n  dup2\n    /* \"#utility.yul\":18605:18618   */\n  lt\n    /* \"#utility.yul\":18586:18919   */\n  iszero\n  tag_275\n  jumpi\n    /* \"#utility.yul\":18670:18713   */\n  tag_276\n    /* \"#utility.yul\":18706:18712   */\n  dup4\n    /* \"#utility.yul\":18670:18713   */\n  tag_63\n  jump\t// in\ntag_276:\n    /* \"#utility.yul\":18727:18822   */\n  tag_277\n    /* \"#utility.yul\":18810:18821   */\n  dup2\n    /* \"#utility.yul\":18797:18808   */\n  dup5\n    /* \"#utility.yul\":18727:18822   */\n  tag_67\n  jump\t// in\ntag_277:\n    /* \"#utility.yul\":18858:18860   */\n  0x20\n    /* \"#utility.yul\":18850:18856   */\n  dup5\n    /* \"#utility.yul\":18846:18861   */\n  add\n    /* \"#utility.yul\":18836:18861   */\n  swap4\n  pop\n    /* \"#utility.yul\":18907:18908   */\n  0x01\n    /* \"#utility.yul\":18894:18905   */\n  dup4\n    /* \"#utility.yul\":18890:18909   */\n  add\n    /* \"#utility.yul\":18875:18909   */\n  swap3\n  pop\n    /* \"#utility.yul\":18636:18919   */\n  pop\n    /* \"#utility.yul\":18632:18633   */\n  0x01\n    /* \"#utility.yul\":18629:18630   */\n  dup2\n    /* \"#utility.yul\":18625:18634   */\n  add\n    /* \"#utility.yul\":18620:18634   */\n  swap1\n  pop\n    /* \"#utility.yul\":18586:18919   */\n  jump(tag_273)\ntag_275:\n    /* \"#utility.yul\":18590:18604   */\n  pop\n    /* \"#utility.yul\":18234:18925   */\n  pop\n  pop\n  pop\n    /* \"#utility.yul\":18098:18925   */\n  pop\n  pop\n  jump\t// out\n    /* \"contracts/MyfirstSmartContarct.sol\":58:945  contract myFirtsSmartcontarct{... */\ntag_8:\n  dataSize(sub_0)\n  dup1\n  dataOffset(sub_0)\n  0x00\n  codecopy\n  0x00\n  return\nstop\n\nsub_0: assembly {\n        /* \"contracts/MyfirstSmartContarct.sol\":58:945  contract myFirtsSmartcontarct{... */\n      mstore(0x40, 0x80)\n      callvalue\n      dup1\n      iszero\n      tag_1\n      jumpi\n      0x00\n      dup1\n      revert\n    tag_1:\n      pop\n      jumpi(tag_2, lt(calldatasize, 0x04))\n      shr(0xe0, calldataload(0x00))\n      dup1\n      0x3f17c948\n      eq\n      tag_3\n      jumpi\n      dup1\n      0x538c91b2\n      eq\n      tag_4\n      jumpi\n      dup1\n      0xa62b110f\n      eq\n      tag_5\n      jumpi\n      dup1\n      0xb13c744b\n      eq\n      tag_6\n      jumpi\n      dup1\n      0xe89927ef\n      eq\n      tag_7\n      jumpi\n    tag_2:\n      0x00\n      dup1\n      revert\n        /* \"contracts/MyfirstSmartContarct.sol\":282:454  function totalVotesfor(string memory candidate) view public returns (uint256){... */\n    tag_3:\n      tag_8\n      0x04\n      dup1\n      calldatasize\n      sub\n      dup2\n      add\n      swap1\n      tag_9\n      swap2\n      swap1\n      tag_10\n      jump\t// in\n    tag_9:\n      tag_11\n      jump\t// in\n    tag_8:\n      mload(0x40)\n      tag_12\n      swap2\n      swap1\n      tag_13\n      jump\t// in\n    tag_12:\n      mload(0x40)\n      dup1\n      swap2\n      sub\n      swap1\n      return\n        /* \"contracts/MyfirstSmartContarct.sol\":615:942  function validCandidate (string memory candidate) view public returns (bool){... */\n    tag_4:\n      tag_14\n      0x04\n      dup1\n      calldatasize\n      sub\n      dup2\n      add\n      swap1\n      tag_15\n      swap2\n      swap1\n      tag_10\n      jump\t// in\n    tag_15:\n      tag_16\n      jump\t// in\n    tag_14:\n      mload(0x40)\n      tag_17\n      swap2\n      swap1\n      tag_18\n      jump\t// in\n    tag_17:\n      mload(0x40)\n      dup1\n      swap2\n      sub\n      swap1\n      return\n        /* \"contracts/MyfirstSmartContarct.sol\":94:142  mapping (string => uint256) public VotesReceived */\n    tag_5:\n      tag_19\n      0x04\n      dup1\n      calldatasize\n      sub\n      dup2\n      add\n      swap1\n      tag_20\n      swap2\n      swap1\n      tag_10\n      jump\t// in\n    tag_20:\n      tag_21\n      jump\t// in\n    tag_19:\n      mload(0x40)\n      tag_22\n      swap2\n      swap1\n      tag_13\n      jump\t// in\n    tag_22:\n      mload(0x40)\n      dup1\n      swap2\n      sub\n      swap1\n      return\n        /* \"contracts/MyfirstSmartContarct.sol\":149:178  string[] public candidateList */\n    tag_6:\n      tag_23\n      0x04\n      dup1\n      calldatasize\n      sub\n      dup2\n      add\n      swap1\n      tag_24\n      swap2\n      swap1\n      tag_25\n      jump\t// in\n    tag_24:\n      tag_26\n      jump\t// in\n    tag_23:\n      mload(0x40)\n      tag_27\n      swap2\n      swap1\n      tag_28\n      jump\t// in\n    tag_27:\n      mload(0x40)\n      dup1\n      swap2\n      sub\n      swap1\n      return\n        /* \"contracts/MyfirstSmartContarct.sol\":460:609  function voteForCandidate(string memory candidate) public {... */\n    tag_7:\n      tag_29\n      0x04\n      dup1\n      calldatasize\n      sub\n      dup2\n      add\n      swap1\n      tag_30\n      swap2\n      swap1\n      tag_10\n      jump\t// in\n    tag_30:\n      tag_31\n      jump\t// in\n    tag_29:\n      stop\n        /* \"contracts/MyfirstSmartContarct.sol\":282:454  function totalVotesfor(string memory candidate) view public returns (uint256){... */\n    tag_11:\n        /* \"contracts/MyfirstSmartContarct.sol\":351:358  uint256 */\n      0x00\n        /* \"contracts/MyfirstSmartContarct.sol\":378:403  validCandidate(candidate) */\n      tag_33\n        /* \"contracts/MyfirstSmartContarct.sol\":393:402  candidate */\n      dup3\n        /* \"contracts/MyfirstSmartContarct.sol\":378:392  validCandidate */\n      tag_16\n        /* \"contracts/MyfirstSmartContarct.sol\":378:403  validCandidate(candidate) */\n      jump\t// in\n    tag_33:\n        /* \"contracts/MyfirstSmartContarct.sol\":370:404  require(validCandidate(candidate)) */\n      tag_34\n      jumpi\n      0x00\n      dup1\n      revert\n    tag_34:\n        /* \"contracts/MyfirstSmartContarct.sol\":422:435  VotesReceived */\n      0x00\n        /* \"contracts/MyfirstSmartContarct.sol\":436:445  candidate */\n      dup3\n        /* \"contracts/MyfirstSmartContarct.sol\":422:446  VotesReceived[candidate] */\n      mload(0x40)\n      tag_35\n      swap2\n      swap1\n      tag_36\n      jump\t// in\n    tag_35:\n      swap1\n      dup2\n      mstore\n      0x20\n      add\n      mload(0x40)\n      dup1\n      swap2\n      sub\n      swap1\n      keccak256\n      sload\n        /* \"contracts/MyfirstSmartContarct.sol\":415:446  return VotesReceived[candidate] */\n      swap1\n      pop\n        /* \"contracts/MyfirstSmartContarct.sol\":282:454  function totalVotesfor(string memory candidate) view public returns (uint256){... */\n      swap2\n      swap1\n      pop\n      jump\t// out\n        /* \"contracts/MyfirstSmartContarct.sol\":615:942  function validCandidate (string memory candidate) view public returns (bool){... */\n    tag_16:\n        /* \"contracts/MyfirstSmartContarct.sol\":686:690  bool */\n      0x00\n        /* \"contracts/MyfirstSmartContarct.sol\":711:717  uint i */\n      dup1\n        /* \"contracts/MyfirstSmartContarct.sol\":719:720  0 */\n      0x00\n        /* \"contracts/MyfirstSmartContarct.sol\":711:720  uint i =0 */\n      swap1\n      pop\n        /* \"contracts/MyfirstSmartContarct.sol\":706:914  for (uint i =0 ; i < candidateList.length; i++) {... */\n    tag_38:\n        /* \"contracts/MyfirstSmartContarct.sol\":727:740  candidateList */\n      0x01\n        /* \"contracts/MyfirstSmartContarct.sol\":727:747  candidateList.length */\n      dup1\n      sload\n      swap1\n      pop\n        /* \"contracts/MyfirstSmartContarct.sol\":723:724  i */\n      dup2\n        /* \"contracts/MyfirstSmartContarct.sol\":723:747  i < candidateList.length */\n      lt\n        /* \"contracts/MyfirstSmartContarct.sol\":706:914  for (uint i =0 ; i < candidateList.length; i++) {... */\n      iszero\n      tag_39\n      jumpi\n        /* \"contracts/MyfirstSmartContarct.sol\":848:857  candidate */\n      dup3\n        /* \"contracts/MyfirstSmartContarct.sol\":831:858  abi.encodePacked(candidate) */\n      add(0x20, mload(0x40))\n      tag_41\n      swap2\n      swap1\n      tag_36\n      jump\t// in\n    tag_41:\n      mload(0x40)\n      0x20\n      dup2\n      dup4\n      sub\n      sub\n      dup2\n      mstore\n      swap1\n      0x40\n      mstore\n        /* \"contracts/MyfirstSmartContarct.sol\":821:859  keccak256(abi.encodePacked(candidate)) */\n      dup1\n      mload\n      swap1\n      0x20\n      add\n      keccak256\n        /* \"contracts/MyfirstSmartContarct.sol\":799:812  candidateList */\n      0x01\n        /* \"contracts/MyfirstSmartContarct.sol\":813:814  i */\n      dup3\n        /* \"contracts/MyfirstSmartContarct.sol\":799:815  candidateList[i] */\n      dup2\n      sload\n      dup2\n      lt\n      tag_42\n      jumpi\n      tag_43\n      tag_44\n      jump\t// in\n    tag_43:\n    tag_42:\n      swap1\n      0x00\n      mstore\n      keccak256(0x00, 0x20)\n      add\n        /* \"contracts/MyfirstSmartContarct.sol\":782:816  abi.encodePacked(candidateList[i]) */\n      add(0x20, mload(0x40))\n      tag_46\n      swap2\n      swap1\n      tag_47\n      jump\t// in\n    tag_46:\n      mload(0x40)\n      0x20\n      dup2\n      dup4\n      sub\n      sub\n      dup2\n      mstore\n      swap1\n      0x40\n      mstore\n        /* \"contracts/MyfirstSmartContarct.sol\":772:817  keccak256(abi.encodePacked(candidateList[i])) */\n      dup1\n      mload\n      swap1\n      0x20\n      add\n      keccak256\n        /* \"contracts/MyfirstSmartContarct.sol\":772:859  keccak256(abi.encodePacked(candidateList[i])) == keccak256(abi.encodePacked(candidate)) */\n      sub\n        /* \"contracts/MyfirstSmartContarct.sol\":768:904  if (keccak256(abi.encodePacked(candidateList[i])) == keccak256(abi.encodePacked(candidate))){... */\n      tag_48\n      jumpi\n        /* \"contracts/MyfirstSmartContarct.sol\":885:889  true */\n      0x01\n        /* \"contracts/MyfirstSmartContarct.sol\":878:889  return true */\n      swap2\n      pop\n      pop\n      jump(tag_37)\n        /* \"contracts/MyfirstSmartContarct.sol\":768:904  if (keccak256(abi.encodePacked(candidateList[i])) == keccak256(abi.encodePacked(candidate))){... */\n    tag_48:\n        /* \"contracts/MyfirstSmartContarct.sol\":749:752  i++ */\n      dup1\n      dup1\n      0x01\n      add\n      swap2\n      pop\n      pop\n        /* \"contracts/MyfirstSmartContarct.sol\":706:914  for (uint i =0 ; i < candidateList.length; i++) {... */\n      jump(tag_38)\n    tag_39:\n      pop\n        /* \"contracts/MyfirstSmartContarct.sol\":930:935  false */\n      0x00\n        /* \"contracts/MyfirstSmartContarct.sol\":923:935  return false */\n      swap1\n      pop\n        /* \"contracts/MyfirstSmartContarct.sol\":615:942  function validCandidate (string memory candidate) view public returns (bool){... */\n    tag_37:\n      swap2\n      swap1\n      pop\n      jump\t// out\n        /* \"contracts/MyfirstSmartContarct.sol\":94:142  mapping (string => uint256) public VotesReceived */\n    tag_21:\n      0x00\n      dup2\n      dup1\n      mload\n      0x20\n      dup2\n      add\n      dup3\n      add\n      dup1\n      mload\n      dup5\n      dup3\n      mstore\n      0x20\n      dup4\n      add\n      0x20\n      dup6\n      add\n      keccak256\n      dup2\n      dup4\n      mstore\n      dup1\n      swap6\n      pop\n      pop\n      pop\n      pop\n      pop\n      pop\n      0x00\n      swap2\n      pop\n      swap1\n      pop\n      sload\n      dup2\n      jump\t// out\n        /* \"contracts/MyfirstSmartContarct.sol\":149:178  string[] public candidateList */\n    tag_26:\n      0x01\n      dup2\n      dup2\n      sload\n      dup2\n      lt\n      tag_49\n      jumpi\n      0x00\n      dup1\n      revert\n    tag_49:\n      swap1\n      0x00\n      mstore\n      keccak256(0x00, 0x20)\n      add\n      0x00\n      swap2\n      pop\n      swap1\n      pop\n      dup1\n      sload\n      tag_51\n      swap1\n      tag_52\n      jump\t// in\n    tag_51:\n      dup1\n      0x1f\n      add\n      0x20\n      dup1\n      swap2\n      div\n      mul\n      0x20\n      add\n      mload(0x40)\n      swap1\n      dup2\n      add\n      0x40\n      mstore\n      dup1\n      swap3\n      swap2\n      swap1\n      dup2\n      dup2\n      mstore\n      0x20\n      add\n      dup3\n      dup1\n      sload\n      tag_53\n      swap1\n      tag_52\n      jump\t// in\n    tag_53:\n      dup1\n      iszero\n      tag_54\n      jumpi\n      dup1\n      0x1f\n      lt\n      tag_55\n      jumpi\n      0x0100\n      dup1\n      dup4\n      sload\n      div\n      mul\n      dup4\n      mstore\n      swap2\n      0x20\n      add\n      swap2\n      jump(tag_54)\n    tag_55:\n      dup3\n      add\n      swap2\n      swap1\n      0x00\n      mstore\n      keccak256(0x00, 0x20)\n      swap1\n    tag_56:\n      dup2\n      sload\n      dup2\n      mstore\n      swap1\n      0x01\n      add\n      swap1\n      0x20\n      add\n      dup1\n      dup4\n      gt\n      tag_56\n      jumpi\n      dup3\n      swap1\n      sub\n      0x1f\n      and\n      dup3\n      add\n      swap2\n    tag_54:\n      pop\n      pop\n      pop\n      pop\n      pop\n      dup2\n      jump\t// out\n        /* \"contracts/MyfirstSmartContarct.sol\":460:609  function voteForCandidate(string memory candidate) public {... */\n    tag_31:\n        /* \"contracts/MyfirstSmartContarct.sol\":536:561  validCandidate(candidate) */\n      tag_58\n        /* \"contracts/MyfirstSmartContarct.sol\":551:560  candidate */\n      dup2\n        /* \"contracts/MyfirstSmartContarct.sol\":536:550  validCandidate */\n      tag_16\n        /* \"contracts/MyfirstSmartContarct.sol\":536:561  validCandidate(candidate) */\n      jump\t// in\n    tag_58:\n        /* \"contracts/MyfirstSmartContarct.sol\":528:562  require(validCandidate(candidate)) */\n      tag_59\n      jumpi\n      0x00\n      dup1\n      revert\n    tag_59:\n        /* \"contracts/MyfirstSmartContarct.sol\":601:602  1 */\n      0x01\n        /* \"contracts/MyfirstSmartContarct.sol\":573:586  VotesReceived */\n      0x00\n        /* \"contracts/MyfirstSmartContarct.sol\":587:596  candidate */\n      dup3\n        /* \"contracts/MyfirstSmartContarct.sol\":573:597  VotesReceived[candidate] */\n      mload(0x40)\n      tag_60\n      swap2\n      swap1\n      tag_36\n      jump\t// in\n    tag_60:\n      swap1\n      dup2\n      mstore\n      0x20\n      add\n      mload(0x40)\n      dup1\n      swap2\n      sub\n      swap1\n      keccak256\n      0x00\n        /* \"contracts/MyfirstSmartContarct.sol\":573:602  VotesReceived[candidate] += 1 */\n      dup3\n      dup3\n      sload\n      tag_61\n      swap2\n      swap1\n      tag_62\n      jump\t// in\n    tag_61:\n      swap3\n      pop\n      pop\n      dup2\n      swap1\n      sstore\n      pop\n        /* \"contracts/MyfirstSmartContarct.sol\":460:609  function voteForCandidate(string memory candidate) public {... */\n      pop\n      jump\t// out\n        /* \"#utility.yul\":7:82   */\n    tag_63:\n        /* \"#utility.yul\":40:46   */\n      0x00\n        /* \"#utility.yul\":73:75   */\n      0x40\n        /* \"#utility.yul\":67:76   */\n      mload\n        /* \"#utility.yul\":57:76   */\n      swap1\n      pop\n        /* \"#utility.yul\":7:82   */\n      swap1\n      jump\t// out\n        /* \"#utility.yul\":88:205   */\n    tag_64:\n        /* \"#utility.yul\":197:198   */\n      0x00\n        /* \"#utility.yul\":194:195   */\n      dup1\n        /* \"#utility.yul\":187:199   */\n      revert\n        /* \"#utility.yul\":211:328   */\n    tag_65:\n        /* \"#utility.yul\":320:321   */\n      0x00\n        /* \"#utility.yul\":317:318   */\n      dup1\n        /* \"#utility.yul\":310:322   */\n      revert\n        /* \"#utility.yul\":334:451   */\n    tag_66:\n        /* \"#utility.yul\":443:444   */\n      0x00\n        /* \"#utility.yul\":440:441   */\n      dup1\n        /* \"#utility.yul\":433:445   */\n      revert\n        /* \"#utility.yul\":457:574   */\n    tag_67:\n        /* \"#utility.yul\":566:567   */\n      0x00\n        /* \"#utility.yul\":563:564   */\n      dup1\n        /* \"#utility.yul\":556:568   */\n      revert\n        /* \"#utility.yul\":580:682   */\n    tag_68:\n        /* \"#utility.yul\":621:627   */\n      0x00\n        /* \"#utility.yul\":672:674   */\n      0x1f\n        /* \"#utility.yul\":668:675   */\n      not\n        /* \"#utility.yul\":663:665   */\n      0x1f\n        /* \"#utility.yul\":656:661   */\n      dup4\n        /* \"#utility.yul\":652:666   */\n      add\n        /* \"#utility.yul\":648:676   */\n      and\n        /* \"#utility.yul\":638:676   */\n      swap1\n      pop\n        /* \"#utility.yul\":580:682   */\n      swap2\n      swap1\n      pop\n      jump\t// out\n        /* \"#utility.yul\":688:868   */\n    tag_69:\n        /* \"#utility.yul\":736:813   */\n      0x4e487b7100000000000000000000000000000000000000000000000000000000\n        /* \"#utility.yul\":733:734   */\n      0x00\n        /* \"#utility.yul\":726:814   */\n      mstore\n        /* \"#utility.yul\":833:837   */\n      0x41\n        /* \"#utility.yul\":830:831   */\n      0x04\n        /* \"#utility.yul\":823:838   */\n      mstore\n        /* \"#utility.yul\":857:861   */\n      0x24\n        /* \"#utility.yul\":854:855   */\n      0x00\n        /* \"#utility.yul\":847:862   */\n      revert\n        /* \"#utility.yul\":874:1155   */\n    tag_70:\n        /* \"#utility.yul\":957:984   */\n      tag_101\n        /* \"#utility.yul\":979:983   */\n      dup3\n        /* \"#utility.yul\":957:984   */\n      tag_68\n      jump\t// in\n    tag_101:\n        /* \"#utility.yul\":949:955   */\n      dup2\n        /* \"#utility.yul\":945:985   */\n      add\n        /* \"#utility.yul\":1087:1093   */\n      dup2\n        /* \"#utility.yul\":1075:1085   */\n      dup2\n        /* \"#utility.yul\":1072:1094   */\n      lt\n        /* \"#utility.yul\":1051:1069   */\n      0xffffffffffffffff\n        /* \"#utility.yul\":1039:1049   */\n      dup3\n        /* \"#utility.yul\":1036:1070   */\n      gt\n        /* \"#utility.yul\":1033:1095   */\n      or\n        /* \"#utility.yul\":1030:1118   */\n      iszero\n      tag_102\n      jumpi\n        /* \"#utility.yul\":1098:1116   */\n      tag_103\n      tag_69\n      jump\t// in\n    tag_103:\n        /* \"#utility.yul\":1030:1118   */\n    tag_102:\n        /* \"#utility.yul\":1138:1148   */\n      dup1\n        /* \"#utility.yul\":1134:1136   */\n      0x40\n        /* \"#utility.yul\":1127:1149   */\n      mstore\n        /* \"#utility.yul\":917:1155   */\n      pop\n        /* \"#utility.yul\":874:1155   */\n      pop\n      pop\n      jump\t// out\n        /* \"#utility.yul\":1161:1290   */\n    tag_71:\n        /* \"#utility.yul\":1195:1201   */\n      0x00\n        /* \"#utility.yul\":1222:1242   */\n      tag_105\n      tag_63\n      jump\t// in\n    tag_105:\n        /* \"#utility.yul\":1212:1242   */\n      swap1\n      pop\n        /* \"#utility.yul\":1251:1284   */\n      tag_106\n        /* \"#utility.yul\":1279:1283   */\n      dup3\n        /* \"#utility.yul\":1271:1277   */\n      dup3\n        /* \"#utility.yul\":1251:1284   */\n      tag_70\n      jump\t// in\n    tag_106:\n        /* \"#utility.yul\":1161:1290   */\n      swap2\n      swap1\n      pop\n      jump\t// out\n        /* \"#utility.yul\":1296:1604   */\n    tag_72:\n        /* \"#utility.yul\":1358:1362   */\n      0x00\n        /* \"#utility.yul\":1448:1466   */\n      0xffffffffffffffff\n        /* \"#utility.yul\":1440:1446   */\n      dup3\n        /* \"#utility.yul\":1437:1467   */\n      gt\n        /* \"#utility.yul\":1434:1490   */\n      iszero\n      tag_108\n      jumpi\n        /* \"#utility.yul\":1470:1488   */\n      tag_109\n      tag_69\n      jump\t// in\n    tag_109:\n        /* \"#utility.yul\":1434:1490   */\n    tag_108:\n        /* \"#utility.yul\":1508:1537   */\n      tag_110\n        /* \"#utility.yul\":1530:1536   */\n      dup3\n        /* \"#utility.yul\":1508:1537   */\n      tag_68\n      jump\t// in\n    tag_110:\n        /* \"#utility.yul\":1500:1537   */\n      swap1\n      pop\n        /* \"#utility.yul\":1592:1596   */\n      0x20\n        /* \"#utility.yul\":1586:1590   */\n      dup2\n        /* \"#utility.yul\":1582:1597   */\n      add\n        /* \"#utility.yul\":1574:1597   */\n      swap1\n      pop\n        /* \"#utility.yul\":1296:1604   */\n      swap2\n      swap1\n      pop\n      jump\t// out\n        /* \"#utility.yul\":1610:1758   */\n    tag_73:\n        /* \"#utility.yul\":1708:1714   */\n      dup3\n        /* \"#utility.yul\":1703:1706   */\n      dup2\n        /* \"#utility.yul\":1698:1701   */\n      dup4\n        /* \"#utility.yul\":1685:1715   */\n      calldatacopy\n        /* \"#utility.yul\":1749:1750   */\n      0x00\n        /* \"#utility.yul\":1740:1746   */\n      dup4\n        /* \"#utility.yul\":1735:1738   */\n      dup4\n        /* \"#utility.yul\":1731:1747   */\n      add\n        /* \"#utility.yul\":1724:1751   */\n      mstore\n        /* \"#utility.yul\":1610:1758   */\n      pop\n      pop\n      pop\n      jump\t// out\n        /* \"#utility.yul\":1764:2189   */\n    tag_74:\n        /* \"#utility.yul\":1842:1847   */\n      0x00\n        /* \"#utility.yul\":1867:1933   */\n      tag_113\n        /* \"#utility.yul\":1883:1932   */\n      tag_114\n        /* \"#utility.yul\":1925:1931   */\n      dup5\n        /* \"#utility.yul\":1883:1932   */\n      tag_72\n      jump\t// in\n    tag_114:\n        /* \"#utility.yul\":1867:1933   */\n      tag_71\n      jump\t// in\n    tag_113:\n        /* \"#utility.yul\":1858:1933   */\n      swap1\n      pop\n        /* \"#utility.yul\":1956:1962   */\n      dup3\n        /* \"#utility.yul\":1949:1954   */\n      dup2\n        /* \"#utility.yul\":1942:1963   */\n      mstore\n        /* \"#utility.yul\":1994:1998   */\n      0x20\n        /* \"#utility.yul\":1987:1992   */\n      dup2\n        /* \"#utility.yul\":1983:1999   */\n      add\n        /* \"#utility.yul\":2032:2035   */\n      dup5\n        /* \"#utility.yul\":2023:2029   */\n      dup5\n        /* \"#utility.yul\":2018:2021   */\n      dup5\n        /* \"#utility.yul\":2014:2030   */\n      add\n        /* \"#utility.yul\":2011:2036   */\n      gt\n        /* \"#utility.yul\":2008:2120   */\n      iszero\n      tag_115\n      jumpi\n        /* \"#utility.yul\":2039:2118   */\n      tag_116\n      tag_67\n      jump\t// in\n    tag_116:\n        /* \"#utility.yul\":2008:2120   */\n    tag_115:\n        /* \"#utility.yul\":2129:2183   */\n      tag_117\n        /* \"#utility.yul\":2176:2182   */\n      dup5\n        /* \"#utility.yul\":2171:2174   */\n      dup3\n        /* \"#utility.yul\":2166:2169   */\n      dup6\n        /* \"#utility.yul\":2129:2183   */\n      tag_73\n      jump\t// in\n    tag_117:\n        /* \"#utility.yul\":1848:2189   */\n      pop\n        /* \"#utility.yul\":1764:2189   */\n      swap4\n      swap3\n      pop\n      pop\n      pop\n      jump\t// out\n        /* \"#utility.yul\":2209:2549   */\n    tag_75:\n        /* \"#utility.yul\":2265:2270   */\n      0x00\n        /* \"#utility.yul\":2314:2317   */\n      dup3\n        /* \"#utility.yul\":2307:2311   */\n      0x1f\n        /* \"#utility.yul\":2299:2305   */\n      dup4\n        /* \"#utility.yul\":2295:2312   */\n      add\n        /* \"#utility.yul\":2291:2318   */\n      slt\n        /* \"#utility.yul\":2281:2403   */\n      tag_119\n      jumpi\n        /* \"#utility.yul\":2322:2401   */\n      tag_120\n      tag_66\n      jump\t// in\n    tag_120:\n        /* \"#utility.yul\":2281:2403   */\n    tag_119:\n        /* \"#utility.yul\":2439:2445   */\n      dup2\n        /* \"#utility.yul\":2426:2446   */\n      calldataload\n        /* \"#utility.yul\":2464:2543   */\n      tag_121\n        /* \"#utility.yul\":2539:2542   */\n      dup5\n        /* \"#utility.yul\":2531:2537   */\n      dup3\n        /* \"#utility.yul\":2524:2528   */\n      0x20\n        /* \"#utility.yul\":2516:2522   */\n      dup7\n        /* \"#utility.yul\":2512:2529   */\n      add\n        /* \"#utility.yul\":2464:2543   */\n      tag_74\n      jump\t// in\n    tag_121:\n        /* \"#utility.yul\":2455:2543   */\n      swap2\n      pop\n        /* \"#utility.yul\":2271:2549   */\n      pop\n        /* \"#utility.yul\":2209:2549   */\n      swap3\n      swap2\n      pop\n      pop\n      jump\t// out\n        /* \"#utility.yul\":2555:3064   */\n    tag_10:\n        /* \"#utility.yul\":2624:2630   */\n      0x00\n        /* \"#utility.yul\":2673:2675   */\n      0x20\n        /* \"#utility.yul\":2661:2670   */\n      dup3\n        /* \"#utility.yul\":2652:2659   */\n      dup5\n        /* \"#utility.yul\":2648:2671   */\n      sub\n        /* \"#utility.yul\":2644:2676   */\n      slt\n        /* \"#utility.yul\":2641:2760   */\n      iszero\n      tag_123\n      jumpi\n        /* \"#utility.yul\":2679:2758   */\n      tag_124\n      tag_64\n      jump\t// in\n    tag_124:\n        /* \"#utility.yul\":2641:2760   */\n    tag_123:\n        /* \"#utility.yul\":2827:2828   */\n      0x00\n        /* \"#utility.yul\":2816:2825   */\n      dup3\n        /* \"#utility.yul\":2812:2829   */\n      add\n        /* \"#utility.yul\":2799:2830   */\n      calldataload\n        /* \"#utility.yul\":2857:2875   */\n      0xffffffffffffffff\n        /* \"#utility.yul\":2849:2855   */\n      dup2\n        /* \"#utility.yul\":2846:2876   */\n      gt\n        /* \"#utility.yul\":2843:2960   */\n      iszero\n      tag_125\n      jumpi\n        /* \"#utility.yul\":2879:2958   */\n      tag_126\n      tag_65\n      jump\t// in\n    tag_126:\n        /* \"#utility.yul\":2843:2960   */\n    tag_125:\n        /* \"#utility.yul\":2984:3047   */\n      tag_127\n        /* \"#utility.yul\":3039:3046   */\n      dup5\n        /* \"#utility.yul\":3030:3036   */\n      dup3\n        /* \"#utility.yul\":3019:3028   */\n      dup6\n        /* \"#utility.yul\":3015:3037   */\n      add\n        /* \"#utility.yul\":2984:3047   */\n      tag_75\n      jump\t// in\n    tag_127:\n        /* \"#utility.yul\":2974:3047   */\n      swap2\n      pop\n        /* \"#utility.yul\":2770:3057   */\n      pop\n        /* \"#utility.yul\":2555:3064   */\n      swap3\n      swap2\n      pop\n      pop\n      jump\t// out\n        /* \"#utility.yul\":3070:3147   */\n    tag_76:\n        /* \"#utility.yul\":3107:3114   */\n      0x00\n        /* \"#utility.yul\":3136:3141   */\n      dup2\n        /* \"#utility.yul\":3125:3141   */\n      swap1\n      pop\n        /* \"#utility.yul\":3070:3147   */\n      swap2\n      swap1\n      pop\n      jump\t// out\n        /* \"#utility.yul\":3153:3271   */\n    tag_77:\n        /* \"#utility.yul\":3240:3264   */\n      tag_130\n        /* \"#utility.yul\":3258:3263   */\n      dup2\n        /* \"#utility.yul\":3240:3264   */\n      tag_76\n      jump\t// in\n    tag_130:\n        /* \"#utility.yul\":3235:3238   */\n      dup3\n        /* \"#utility.yul\":3228:3265   */\n      mstore\n        /* \"#utility.yul\":3153:3271   */\n      pop\n      pop\n      jump\t// out\n        /* \"#utility.yul\":3277:3499   */\n    tag_13:\n        /* \"#utility.yul\":3370:3374   */\n      0x00\n        /* \"#utility.yul\":3408:3410   */\n      0x20\n        /* \"#utility.yul\":3397:3406   */\n      dup3\n        /* \"#utility.yul\":3393:3411   */\n      add\n        /* \"#utility.yul\":3385:3411   */\n      swap1\n      pop\n        /* \"#utility.yul\":3421:3492   */\n      tag_132\n        /* \"#utility.yul\":3489:3490   */\n      0x00\n        /* \"#utility.yul\":3478:3487   */\n      dup4\n        /* \"#utility.yul\":3474:3491   */\n      add\n        /* \"#utility.yul\":3465:3471   */\n      dup5\n        /* \"#utility.yul\":3421:3492   */\n      tag_77\n      jump\t// in\n    tag_132:\n        /* \"#utility.yul\":3277:3499   */\n      swap3\n      swap2\n      pop\n      pop\n      jump\t// out\n        /* \"#utility.yul\":3505:3595   */\n    tag_78:\n        /* \"#utility.yul\":3539:3546   */\n      0x00\n        /* \"#utility.yul\":3582:3587   */\n      dup2\n        /* \"#utility.yul\":3575:3588   */\n      iszero\n        /* \"#utility.yul\":3568:3589   */\n      iszero\n        /* \"#utility.yul\":3557:3589   */\n      swap1\n      pop\n        /* \"#utility.yul\":3505:3595   */\n      swap2\n      swap1\n      pop\n      jump\t// out\n        /* \"#utility.yul\":3601:3710   */\n    tag_79:\n        /* \"#utility.yul\":3682:3703   */\n      tag_135\n        /* \"#utility.yul\":3697:3702   */\n      dup2\n        /* \"#utility.yul\":3682:3703   */\n      tag_78\n      jump\t// in\n    tag_135:\n        /* \"#utility.yul\":3677:3680   */\n      dup3\n        /* \"#utility.yul\":3670:3704   */\n      mstore\n        /* \"#utility.yul\":3601:3710   */\n      pop\n      pop\n      jump\t// out\n        /* \"#utility.yul\":3716:3926   */\n    tag_18:\n        /* \"#utility.yul\":3803:3807   */\n      0x00\n        /* \"#utility.yul\":3841:3843   */\n      0x20\n        /* \"#utility.yul\":3830:3839   */\n      dup3\n        /* \"#utility.yul\":3826:3844   */\n      add\n        /* \"#utility.yul\":3818:3844   */\n      swap1\n      pop\n        /* \"#utility.yul\":3854:3919   */\n      tag_137\n        /* \"#utility.yul\":3916:3917   */\n      0x00\n        /* \"#utility.yul\":3905:3914   */\n      dup4\n        /* \"#utility.yul\":3901:3918   */\n      add\n        /* \"#utility.yul\":3892:3898   */\n      dup5\n        /* \"#utility.yul\":3854:3919   */\n      tag_79\n      jump\t// in\n    tag_137:\n        /* \"#utility.yul\":3716:3926   */\n      swap3\n      swap2\n      pop\n      pop\n      jump\t// out\n        /* \"#utility.yul\":3932:4054   */\n    tag_80:\n        /* \"#utility.yul\":4005:4029   */\n      tag_139\n        /* \"#utility.yul\":4023:4028   */\n      dup2\n        /* \"#utility.yul\":4005:4029   */\n      tag_76\n      jump\t// in\n    tag_139:\n        /* \"#utility.yul\":3998:4003   */\n      dup2\n        /* \"#utility.yul\":3995:4030   */\n      eq\n        /* \"#utility.yul\":3985:4048   */\n      tag_140\n      jumpi\n        /* \"#utility.yul\":4044:4045   */\n      0x00\n        /* \"#utility.yul\":4041:4042   */\n      dup1\n        /* \"#utility.yul\":4034:4046   */\n      revert\n        /* \"#utility.yul\":3985:4048   */\n    tag_140:\n        /* \"#utility.yul\":3932:4054   */\n      pop\n      jump\t// out\n        /* \"#utility.yul\":4060:4199   */\n    tag_81:\n        /* \"#utility.yul\":4106:4111   */\n      0x00\n        /* \"#utility.yul\":4144:4150   */\n      dup2\n        /* \"#utility.yul\":4131:4151   */\n      calldataload\n        /* \"#utility.yul\":4122:4151   */\n      swap1\n      pop\n        /* \"#utility.yul\":4160:4193   */\n      tag_142\n        /* \"#utility.yul\":4187:4192   */\n      dup2\n        /* \"#utility.yul\":4160:4193   */\n      tag_80\n      jump\t// in\n    tag_142:\n        /* \"#utility.yul\":4060:4199   */\n      swap3\n      swap2\n      pop\n      pop\n      jump\t// out\n        /* \"#utility.yul\":4205:4534   */\n    tag_25:\n        /* \"#utility.yul\":4264:4270   */\n      0x00\n        /* \"#utility.yul\":4313:4315   */\n      0x20\n        /* \"#utility.yul\":4301:4310   */\n      dup3\n        /* \"#utility.yul\":4292:4299   */\n      dup5\n        /* \"#utility.yul\":4288:4311   */\n      sub\n        /* \"#utility.yul\":4284:4316   */\n      slt\n        /* \"#utility.yul\":4281:4400   */\n      iszero\n      tag_144\n      jumpi\n        /* \"#utility.yul\":4319:4398   */\n      tag_145\n      tag_64\n      jump\t// in\n    tag_145:\n        /* \"#utility.yul\":4281:4400   */\n    tag_144:\n        /* \"#utility.yul\":4439:4440   */\n      0x00\n        /* \"#utility.yul\":4464:4517   */\n      tag_146\n        /* \"#utility.yul\":4509:4516   */\n      dup5\n        /* \"#utility.yul\":4500:4506   */\n      dup3\n        /* \"#utility.yul\":4489:4498   */\n      dup6\n        /* \"#utility.yul\":4485:4507   */\n      add\n        /* \"#utility.yul\":4464:4517   */\n      tag_81\n      jump\t// in\n    tag_146:\n        /* \"#utility.yul\":4454:4517   */\n      swap2\n      pop\n        /* \"#utility.yul\":4410:4527   */\n      pop\n        /* \"#utility.yul\":4205:4534   */\n      swap3\n      swap2\n      pop\n      pop\n      jump\t// out\n        /* \"#utility.yul\":4540:4639   */\n    tag_82:\n        /* \"#utility.yul\":4592:4598   */\n      0x00\n        /* \"#utility.yul\":4626:4631   */\n      dup2\n        /* \"#utility.yul\":4620:4632   */\n      mload\n        /* \"#utility.yul\":4610:4632   */\n      swap1\n      pop\n        /* \"#utility.yul\":4540:4639   */\n      swap2\n      swap1\n      pop\n      jump\t// out\n        /* \"#utility.yul\":4645:4814   */\n    tag_83:\n        /* \"#utility.yul\":4729:4740   */\n      0x00\n        /* \"#utility.yul\":4763:4769   */\n      dup3\n        /* \"#utility.yul\":4758:4761   */\n      dup3\n        /* \"#utility.yul\":4751:4770   */\n      mstore\n        /* \"#utility.yul\":4803:4807   */\n      0x20\n        /* \"#utility.yul\":4798:4801   */\n      dup3\n        /* \"#utility.yul\":4794:4808   */\n      add\n        /* \"#utility.yul\":4779:4808   */\n      swap1\n      pop\n        /* \"#utility.yul\":4645:4814   */\n      swap3\n      swap2\n      pop\n      pop\n      jump\t// out\n        /* \"#utility.yul\":4820:5068   */\n    tag_84:\n        /* \"#utility.yul\":4902:4903   */\n      0x00\n        /* \"#utility.yul\":4912:5025   */\n    tag_150:\n        /* \"#utility.yul\":4926:4932   */\n      dup4\n        /* \"#utility.yul\":4923:4924   */\n      dup2\n        /* \"#utility.yul\":4920:4933   */\n      lt\n        /* \"#utility.yul\":4912:5025   */\n      iszero\n      tag_152\n      jumpi\n        /* \"#utility.yul\":5011:5012   */\n      dup1\n        /* \"#utility.yul\":5006:5009   */\n      dup3\n        /* \"#utility.yul\":5002:5013   */\n      add\n        /* \"#utility.yul\":4996:5014   */\n      mload\n        /* \"#utility.yul\":4992:4993   */\n      dup2\n        /* \"#utility.yul\":4987:4990   */\n      dup5\n        /* \"#utility.yul\":4983:4994   */\n      add\n        /* \"#utility.yul\":4976:5015   */\n      mstore\n        /* \"#utility.yul\":4948:4950   */\n      0x20\n        /* \"#utility.yul\":4945:4946   */\n      dup2\n        /* \"#utility.yul\":4941:4951   */\n      add\n        /* \"#utility.yul\":4936:4951   */\n      swap1\n      pop\n        /* \"#utility.yul\":4912:5025   */\n      jump(tag_150)\n    tag_152:\n        /* \"#utility.yul\":5059:5060   */\n      0x00\n        /* \"#utility.yul\":5050:5056   */\n      dup5\n        /* \"#utility.yul\":5045:5048   */\n      dup5\n        /* \"#utility.yul\":5041:5057   */\n      add\n        /* \"#utility.yul\":5034:5061   */\n      mstore\n        /* \"#utility.yul\":4882:5068   */\n      pop\n        /* \"#utility.yul\":4820:5068   */\n      pop\n      pop\n      pop\n      jump\t// out\n        /* \"#utility.yul\":5074:5451   */\n    tag_85:\n        /* \"#utility.yul\":5162:5165   */\n      0x00\n        /* \"#utility.yul\":5190:5229   */\n      tag_154\n        /* \"#utility.yul\":5223:5228   */\n      dup3\n        /* \"#utility.yul\":5190:5229   */\n      tag_82\n      jump\t// in\n    tag_154:\n        /* \"#utility.yul\":5245:5316   */\n      tag_155\n        /* \"#utility.yul\":5309:5315   */\n      dup2\n        /* \"#utility.yul\":5304:5307   */\n      dup6\n        /* \"#utility.yul\":5245:5316   */\n      tag_83\n      jump\t// in\n    tag_155:\n        /* \"#utility.yul\":5238:5316   */\n      swap4\n      pop\n        /* \"#utility.yul\":5325:5390   */\n      tag_156\n        /* \"#utility.yul\":5383:5389   */\n      dup2\n        /* \"#utility.yul\":5378:5381   */\n      dup6\n        /* \"#utility.yul\":5371:5375   */\n      0x20\n        /* \"#utility.yul\":5364:5369   */\n      dup7\n        /* \"#utility.yul\":5360:5376   */\n      add\n        /* \"#utility.yul\":5325:5390   */\n      tag_84\n      jump\t// in\n    tag_156:\n        /* \"#utility.yul\":5415:5444   */\n      tag_157\n        /* \"#utility.yul\":5437:5443   */\n      dup2\n        /* \"#utility.yul\":5415:5444   */\n      tag_68\n      jump\t// in\n    tag_157:\n        /* \"#utility.yul\":5410:5413   */\n      dup5\n        /* \"#utility.yul\":5406:5445   */\n      add\n        /* \"#utility.yul\":5399:5445   */\n      swap2\n      pop\n        /* \"#utility.yul\":5166:5451   */\n      pop\n        /* \"#utility.yul\":5074:5451   */\n      swap3\n      swap2\n      pop\n      pop\n      jump\t// out\n        /* \"#utility.yul\":5457:5770   */\n    tag_28:\n        /* \"#utility.yul\":5570:5574   */\n      0x00\n        /* \"#utility.yul\":5608:5610   */\n      0x20\n        /* \"#utility.yul\":5597:5606   */\n      dup3\n        /* \"#utility.yul\":5593:5611   */\n      add\n        /* \"#utility.yul\":5585:5611   */\n      swap1\n      pop\n        /* \"#utility.yul\":5657:5666   */\n      dup2\n        /* \"#utility.yul\":5651:5655   */\n      dup2\n        /* \"#utility.yul\":5647:5667   */\n      sub\n        /* \"#utility.yul\":5643:5644   */\n      0x00\n        /* \"#utility.yul\":5632:5641   */\n      dup4\n        /* \"#utility.yul\":5628:5645   */\n      add\n        /* \"#utility.yul\":5621:5668   */\n      mstore\n        /* \"#utility.yul\":5685:5763   */\n      tag_159\n        /* \"#utility.yul\":5758:5762   */\n      dup2\n        /* \"#utility.yul\":5749:5755   */\n      dup5\n        /* \"#utility.yul\":5685:5763   */\n      tag_85\n      jump\t// in\n    tag_159:\n        /* \"#utility.yul\":5677:5763   */\n      swap1\n      pop\n        /* \"#utility.yul\":5457:5770   */\n      swap3\n      swap2\n      pop\n      pop\n      jump\t// out\n        /* \"#utility.yul\":5776:5924   */\n    tag_86:\n        /* \"#utility.yul\":5878:5889   */\n      0x00\n        /* \"#utility.yul\":5915:5918   */\n      dup2\n        /* \"#utility.yul\":5900:5918   */\n      swap1\n      pop\n        /* \"#utility.yul\":5776:5924   */\n      swap3\n      swap2\n      pop\n      pop\n      jump\t// out\n        /* \"#utility.yul\":5930:6320   */\n    tag_87:\n        /* \"#utility.yul\":6036:6039   */\n      0x00\n        /* \"#utility.yul\":6064:6103   */\n      tag_162\n        /* \"#utility.yul\":6097:6102   */\n      dup3\n        /* \"#utility.yul\":6064:6103   */\n      tag_82\n      jump\t// in\n    tag_162:\n        /* \"#utility.yul\":6119:6208   */\n      tag_163\n        /* \"#utility.yul\":6201:6207   */\n      dup2\n        /* \"#utility.yul\":6196:6199   */\n      dup6\n        /* \"#utility.yul\":6119:6208   */\n      tag_86\n      jump\t// in\n    tag_163:\n        /* \"#utility.yul\":6112:6208   */\n      swap4\n      pop\n        /* \"#utility.yul\":6217:6282   */\n      tag_164\n        /* \"#utility.yul\":6275:6281   */\n      dup2\n        /* \"#utility.yul\":6270:6273   */\n      dup6\n        /* \"#utility.yul\":6263:6267   */\n      0x20\n        /* \"#utility.yul\":6256:6261   */\n      dup7\n        /* \"#utility.yul\":6252:6268   */\n      add\n        /* \"#utility.yul\":6217:6282   */\n      tag_84\n      jump\t// in\n    tag_164:\n        /* \"#utility.yul\":6307:6313   */\n      dup1\n        /* \"#utility.yul\":6302:6305   */\n      dup5\n        /* \"#utility.yul\":6298:6314   */\n      add\n        /* \"#utility.yul\":6291:6314   */\n      swap2\n      pop\n        /* \"#utility.yul\":6040:6320   */\n      pop\n        /* \"#utility.yul\":5930:6320   */\n      swap3\n      swap2\n      pop\n      pop\n      jump\t// out\n        /* \"#utility.yul\":6326:6601   */\n    tag_36:\n        /* \"#utility.yul\":6458:6461   */\n      0x00\n        /* \"#utility.yul\":6480:6575   */\n      tag_166\n        /* \"#utility.yul\":6571:6574   */\n      dup3\n        /* \"#utility.yul\":6562:6568   */\n      dup5\n        /* \"#utility.yul\":6480:6575   */\n      tag_87\n      jump\t// in\n    tag_166:\n        /* \"#utility.yul\":6473:6575   */\n      swap2\n      pop\n        /* \"#utility.yul\":6592:6595   */\n      dup2\n        /* \"#utility.yul\":6585:6595   */\n      swap1\n      pop\n        /* \"#utility.yul\":6326:6601   */\n      swap3\n      swap2\n      pop\n      pop\n      jump\t// out\n        /* \"#utility.yul\":6607:6787   */\n    tag_44:\n        /* \"#utility.yul\":6655:6732   */\n      0x4e487b7100000000000000000000000000000000000000000000000000000000\n        /* \"#utility.yul\":6652:6653   */\n      0x00\n        /* \"#utility.yul\":6645:6733   */\n      mstore\n        /* \"#utility.yul\":6752:6756   */\n      0x32\n        /* \"#utility.yul\":6749:6750   */\n      0x04\n        /* \"#utility.yul\":6742:6757   */\n      mstore\n        /* \"#utility.yul\":6776:6780   */\n      0x24\n        /* \"#utility.yul\":6773:6774   */\n      0x00\n        /* \"#utility.yul\":6766:6781   */\n      revert\n        /* \"#utility.yul\":6793:6973   */\n    tag_88:\n        /* \"#utility.yul\":6841:6918   */\n      0x4e487b7100000000000000000000000000000000000000000000000000000000\n        /* \"#utility.yul\":6838:6839   */\n      0x00\n        /* \"#utility.yul\":6831:6919   */\n      mstore\n        /* \"#utility.yul\":6938:6942   */\n      0x22\n        /* \"#utility.yul\":6935:6936   */\n      0x04\n        /* \"#utility.yul\":6928:6943   */\n      mstore\n        /* \"#utility.yul\":6962:6966   */\n      0x24\n        /* \"#utility.yul\":6959:6960   */\n      0x00\n        /* \"#utility.yul\":6952:6967   */\n      revert\n        /* \"#utility.yul\":6979:7299   */\n    tag_52:\n        /* \"#utility.yul\":7023:7029   */\n      0x00\n        /* \"#utility.yul\":7060:7061   */\n      0x02\n        /* \"#utility.yul\":7054:7058   */\n      dup3\n        /* \"#utility.yul\":7050:7062   */\n      div\n        /* \"#utility.yul\":7040:7062   */\n      swap1\n      pop\n        /* \"#utility.yul\":7107:7108   */\n      0x01\n        /* \"#utility.yul\":7101:7105   */\n      dup3\n        /* \"#utility.yul\":7097:7109   */\n      and\n        /* \"#utility.yul\":7128:7146   */\n      dup1\n        /* \"#utility.yul\":7118:7199   */\n      tag_170\n      jumpi\n        /* \"#utility.yul\":7184:7188   */\n      0x7f\n        /* \"#utility.yul\":7176:7182   */\n      dup3\n        /* \"#utility.yul\":7172:7189   */\n      and\n        /* \"#utility.yul\":7162:7189   */\n      swap2\n      pop\n        /* \"#utility.yul\":7118:7199   */\n    tag_170:\n        /* \"#utility.yul\":7246:7248   */\n      0x20\n        /* \"#utility.yul\":7238:7244   */\n      dup3\n        /* \"#utility.yul\":7235:7249   */\n      lt\n        /* \"#utility.yul\":7215:7233   */\n      dup2\n        /* \"#utility.yul\":7212:7250   */\n      sub\n        /* \"#utility.yul\":7209:7293   */\n      tag_171\n      jumpi\n        /* \"#utility.yul\":7265:7283   */\n      tag_172\n      tag_88\n      jump\t// in\n    tag_172:\n        /* \"#utility.yul\":7209:7293   */\n    tag_171:\n        /* \"#utility.yul\":7030:7299   */\n      pop\n        /* \"#utility.yul\":6979:7299   */\n      swap2\n      swap1\n      pop\n      jump\t// out\n        /* \"#utility.yul\":7305:7446   */\n    tag_89:\n        /* \"#utility.yul\":7354:7358   */\n      0x00\n        /* \"#utility.yul\":7377:7380   */\n      dup2\n        /* \"#utility.yul\":7369:7380   */\n      swap1\n      pop\n        /* \"#utility.yul\":7400:7403   */\n      dup2\n        /* \"#utility.yul\":7397:7398   */\n      0x00\n        /* \"#utility.yul\":7390:7404   */\n      mstore\n        /* \"#utility.yul\":7434:7438   */\n      0x20\n        /* \"#utility.yul\":7431:7432   */\n      0x00\n        /* \"#utility.yul\":7421:7439   */\n      keccak256\n        /* \"#utility.yul\":7413:7439   */\n      swap1\n      pop\n        /* \"#utility.yul\":7305:7446   */\n      swap2\n      swap1\n      pop\n      jump\t// out\n        /* \"#utility.yul\":7476:8350   */\n    tag_90:\n        /* \"#utility.yul\":7579:7582   */\n      0x00\n        /* \"#utility.yul\":7616:7621   */\n      dup2\n        /* \"#utility.yul\":7610:7622   */\n      sload\n        /* \"#utility.yul\":7645:7681   */\n      tag_175\n        /* \"#utility.yul\":7671:7680   */\n      dup2\n        /* \"#utility.yul\":7645:7681   */\n      tag_52\n      jump\t// in\n    tag_175:\n        /* \"#utility.yul\":7697:7786   */\n      tag_176\n        /* \"#utility.yul\":7779:7785   */\n      dup2\n        /* \"#utility.yul\":7774:7777   */\n      dup7\n        /* \"#utility.yul\":7697:7786   */\n      tag_86\n      jump\t// in\n    tag_176:\n        /* \"#utility.yul\":7690:7786   */\n      swap5\n      pop\n        /* \"#utility.yul\":7817:7818   */\n      0x01\n        /* \"#utility.yul\":7806:7815   */\n      dup3\n        /* \"#utility.yul\":7802:7819   */\n      and\n        /* \"#utility.yul\":7833:7834   */\n      0x00\n        /* \"#utility.yul\":7828:7994   */\n      dup2\n      eq\n      tag_178\n      jumpi\n        /* \"#utility.yul\":8008:8009   */\n      0x01\n        /* \"#utility.yul\":8003:8344   */\n      dup2\n      eq\n      tag_179\n      jumpi\n        /* \"#utility.yul\":7795:8344   */\n      jump(tag_177)\n        /* \"#utility.yul\":7828:7994   */\n    tag_178:\n        /* \"#utility.yul\":7912:7916   */\n      0xff\n        /* \"#utility.yul\":7908:7917   */\n      not\n        /* \"#utility.yul\":7897:7906   */\n      dup4\n        /* \"#utility.yul\":7893:7918   */\n      and\n        /* \"#utility.yul\":7888:7891   */\n      dup7\n        /* \"#utility.yul\":7881:7919   */\n      mstore\n        /* \"#utility.yul\":7974:7980   */\n      dup2\n        /* \"#utility.yul\":7967:7981   */\n      iszero\n        /* \"#utility.yul\":7960:7982   */\n      iszero\n        /* \"#utility.yul\":7952:7958   */\n      dup3\n        /* \"#utility.yul\":7948:7983   */\n      mul\n        /* \"#utility.yul\":7943:7946   */\n      dup7\n        /* \"#utility.yul\":7939:7984   */\n      add\n        /* \"#utility.yul\":7932:7984   */\n      swap4\n      pop\n        /* \"#utility.yul\":7828:7994   */\n      jump(tag_177)\n        /* \"#utility.yul\":8003:8344   */\n    tag_179:\n        /* \"#utility.yul\":8070:8108   */\n      tag_180\n        /* \"#utility.yul\":8102:8107   */\n      dup6\n        /* \"#utility.yul\":8070:8108   */\n      tag_89\n      jump\t// in\n    tag_180:\n        /* \"#utility.yul\":8130:8131   */\n      0x00\n        /* \"#utility.yul\":8144:8298   */\n    tag_181:\n        /* \"#utility.yul\":8158:8164   */\n      dup4\n        /* \"#utility.yul\":8155:8156   */\n      dup2\n        /* \"#utility.yul\":8152:8165   */\n      lt\n        /* \"#utility.yul\":8144:8298   */\n      iszero\n      tag_183\n      jumpi\n        /* \"#utility.yul\":8232:8239   */\n      dup2\n        /* \"#utility.yul\":8226:8240   */\n      sload\n        /* \"#utility.yul\":8222:8223   */\n      dup2\n        /* \"#utility.yul\":8217:8220   */\n      dup10\n        /* \"#utility.yul\":8213:8224   */\n      add\n        /* \"#utility.yul\":8206:8241   */\n      mstore\n        /* \"#utility.yul\":8282:8283   */\n      0x01\n        /* \"#utility.yul\":8273:8280   */\n      dup3\n        /* \"#utility.yul\":8269:8284   */\n      add\n        /* \"#utility.yul\":8258:8284   */\n      swap2\n      pop\n        /* \"#utility.yul\":8180:8184   */\n      0x20\n        /* \"#utility.yul\":8177:8178   */\n      dup2\n        /* \"#utility.yul\":8173:8185   */\n      add\n        /* \"#utility.yul\":8168:8185   */\n      swap1\n      pop\n        /* \"#utility.yul\":8144:8298   */\n      jump(tag_181)\n    tag_183:\n        /* \"#utility.yul\":8327:8333   */\n      dup4\n        /* \"#utility.yul\":8322:8325   */\n      dup9\n        /* \"#utility.yul\":8318:8334   */\n      add\n        /* \"#utility.yul\":8311:8334   */\n      swap6\n      pop\n        /* \"#utility.yul\":8010:8344   */\n      pop\n      pop\n        /* \"#utility.yul\":7795:8344   */\n    tag_177:\n      pop\n        /* \"#utility.yul\":7583:8350   */\n      pop\n      pop\n        /* \"#utility.yul\":7476:8350   */\n      swap3\n      swap2\n      pop\n      pop\n      jump\t// out\n        /* \"#utility.yul\":8356:8625   */\n    tag_47:\n        /* \"#utility.yul\":8485:8488   */\n      0x00\n        /* \"#utility.yul\":8507:8599   */\n      tag_185\n        /* \"#utility.yul\":8595:8598   */\n      dup3\n        /* \"#utility.yul\":8586:8592   */\n      dup5\n        /* \"#utility.yul\":8507:8599   */\n      tag_90\n      jump\t// in\n    tag_185:\n        /* \"#utility.yul\":8500:8599   */\n      swap2\n      pop\n        /* \"#utility.yul\":8616:8619   */\n      dup2\n        /* \"#utility.yul\":8609:8619   */\n      swap1\n      pop\n        /* \"#utility.yul\":8356:8625   */\n      swap3\n      swap2\n      pop\n      pop\n      jump\t// out\n        /* \"#utility.yul\":8631:8811   */\n    tag_91:\n        /* \"#utility.yul\":8679:8756   */\n      0x4e487b7100000000000000000000000000000000000000000000000000000000\n        /* \"#utility.yul\":8676:8677   */\n      0x00\n        /* \"#utility.yul\":8669:8757   */\n      mstore\n        /* \"#utility.yul\":8776:8780   */\n      0x11\n        /* \"#utility.yul\":8773:8774   */\n      0x04\n        /* \"#utility.yul\":8766:8781   */\n      mstore\n        /* \"#utility.yul\":8800:8804   */\n      0x24\n        /* \"#utility.yul\":8797:8798   */\n      0x00\n        /* \"#utility.yul\":8790:8805   */\n      revert\n        /* \"#utility.yul\":8817:9008   */\n    tag_62:\n        /* \"#utility.yul\":8857:8860   */\n      0x00\n        /* \"#utility.yul\":8876:8896   */\n      tag_188\n        /* \"#utility.yul\":8894:8895   */\n      dup3\n        /* \"#utility.yul\":8876:8896   */\n      tag_76\n      jump\t// in\n    tag_188:\n        /* \"#utility.yul\":8871:8896   */\n      swap2\n      pop\n        /* \"#utility.yul\":8910:8930   */\n      tag_189\n        /* \"#utility.yul\":8928:8929   */\n      dup4\n        /* \"#utility.yul\":8910:8930   */\n      tag_76\n      jump\t// in\n    tag_189:\n        /* \"#utility.yul\":8905:8930   */\n      swap3\n      pop\n        /* \"#utility.yul\":8953:8954   */\n      dup3\n        /* \"#utility.yul\":8950:8951   */\n      dup3\n        /* \"#utility.yul\":8946:8955   */\n      add\n        /* \"#utility.yul\":8939:8955   */\n      swap1\n      pop\n        /* \"#utility.yul\":8974:8977   */\n      dup1\n        /* \"#utility.yul\":8971:8972   */\n      dup3\n        /* \"#utility.yul\":8968:8978   */\n      gt\n        /* \"#utility.yul\":8965:9001   */\n      iszero\n      tag_190\n      jumpi\n        /* \"#utility.yul\":8981:8999   */\n      tag_191\n      tag_91\n      jump\t// in\n    tag_191:\n        /* \"#utility.yul\":8965:9001   */\n    tag_190:\n        /* \"#utility.yul\":8817:9008   */\n      swap3\n      swap2\n      pop\n      pop\n      jump\t// out\n\n    auxdata: 0xa2646970667358221220307d0061f9ccea733f1ba10d2e46b94f2cfdade89b06a4019606d0601156900e64736f6c63430008210033\n}\n",
				"bytecode": {
					"linkReferences": {},
					"object": "608060405234801561001057600080fd5b50604051611220380380611220833981810160405281019061003291906102a3565b8060019081610041919061093f565b50506109a2565b6000604051905090565b600080fd5b600080fd5b600080fd5b6000601f19601f8301169050919050565b7f4e487b7100000000000000000000000000000000000000000000000000000000600052604160045260246000fd5b6100aa82610061565b810181811067ffffffffffffffff821117156100c9576100c8610072565b5b80604052505050565b60006100dc610048565b90506100e882826100a1565b919050565b600067ffffffffffffffff82111561010857610107610072565b5b602082029050602081019050919050565b600080fd5b600080fd5b600067ffffffffffffffff82111561013e5761013d610072565b5b61014782610061565b9050602081019050919050565b60005b83811015610172578082015181840152602081019050610157565b60008484015250505050565b600061019161018c84610123565b6100d2565b9050828152602081018484840111156101ad576101ac61011e565b5b6101b8848285610154565b509392505050565b600082601f8301126101d5576101d461005c565b5b81516101e584826020860161017e565b91505092915050565b60006102016101fc846100ed565b6100d2565b9050808382526020820190506020840283018581111561022457610223610119565b5b835b8181101561026b57805167ffffffffffffffff8111156102495761024861005c565b5b80860161025689826101c0565b85526020850194505050602081019050610226565b5050509392505050565b600082601f83011261028a5761028961005c565b5b815161029a8482602086016101ee565b91505092915050565b6000602082840312156102b9576102b8610052565b5b600082015167ffffffffffffffff8111156102d7576102d6610057565b5b6102e384828501610275565b91505092915050565b6000819050602082019050919050565b600081549050919050565b6000819050919050565b60008190506001806001038301049050919050565b60008190508160005260206000209050919050565b7f4e487b7100000000000000000000000000000000000000000000000000000000600052602260045260246000fd5b6000600282049050600182168061038257607f821691505b6020821081036103955761039461033b565b5b50919050565b60008190508160005260206000209050919050565b600082821c905092915050565b6103ed7fffffffffffffffffffffffffffffffffffffffffffffffffffffffffffffffff836020036008026103b0565b815481168255505050565b600082821b905092915050565b6000600883026104357fffffffffffffffffffffffffffffffffffffffffffffffffffffffffffffffff826103f8565b61043f86836103f8565b95508019841693508086168417925050509392505050565b6000819050919050565b600061047c61047761047284610307565b610457565b610307565b9050919050565b6000819050919050565b61049683610461565b6104aa6104a282610483565b848454610405565b825550505050565b600090565b6104bf6104b2565b6104ca81848461048d565b505050565b60005b828110156104f2576104e760008284016104b7565b6001810190506104d2565b505050565b6000610508600019846008026103b0565b1980831691505092915050565b600061052183836104f7565b9150826002028217905092915050565b61053a8161039b565b610545838254610515565b8083556000825550505050565b60006020601f8301049050919050565b60208410600081146105be57601f84116001811461058b576105848685610515565b83556105b8565b6105948361039b565b6105ac60016105a288610552565b03600183016104cf565b6105b68785610531565b505b50610618565b6105c785610552565b6105d085610552565b6105d98461039b565b828101601f891680156105f4576105f381600184036103bd565b5b8484111561060957610608858503836104cf565b5b60018a60020217875550505050505b5050505050565b6801000000000000000084111561063957610638610072565b5b60208310600081146106845760208510600081146106625761065b8685610515565b835561067e565b8360ff19169350836106738461039b565b556001866002020183555b5061068e565b6001856002020182555b5050505050565b80546106a08161036a565b808411156106b5576106b48482848661061f565b5b808410156106ca576106c984828486610562565b5b50505050565b828110156106f0576106e560008284016104b7565b6001810190506106d0565b505050565b610700600082610695565b50565b7f4e487b7100000000000000000000000000000000000000000000000000000000600052600060045260246000fd5b6000821461074357610742610703565b5b61074c816106f5565b5050565b60005b82811015610773576107686000828401610732565b600181019050610753565b505050565b818310156107af5761078982610311565b61079284610311565b61079b83610326565b8181016107aa83850382610750565b505050505b505050565b680100000000000000008211156107ce576107cd610072565b5b6107d7816102fc565b8282556107e5838284610778565b505050565b600081519050919050565b600081519050919050565b600081519050919050565b601f82111561085a5782821115610859576108258161039b565b61082e83610552565b61083785610552565b602086101561084557600090505b808301610854828403826104cf565b505050505b5b505050565b61086882610800565b67ffffffffffffffff81111561088157610880610072565b5b61088b825461036a565b61089682828561080b565b600060209050601f8311600181146108c957600084156108b7578287015190505b6108c18582610515565b865550610929565b601f1984166108d78661039b565b60005b828110156108ff578489015182556001820191506020850194506020810190506108da565b8683101561091c5784890151610918601f8916826104f7565b8355505b6001600288020188555050505b505050505050565b61093b828261085f565b5050565b610948826107ea565b61095281836107b4565b61095b836102ec565b61096483610326565b60005b8381101561099a57610978836107f5565b6109828184610931565b60208401935060018301925050600181019050610967565b505050505050565b61086f806109b16000396000f3fe608060405234801561001057600080fd5b50600436106100575760003560e01c80633f17c9481461005c578063538c91b21461008c578063a62b110f146100bc578063b13c744b146100ec578063e89927ef1461011c575b600080fd5b61007660048036038101906100719190610498565b610138565b60405161008391906104fa565b60405180910390f35b6100a660048036038101906100a19190610498565b610172565b6040516100b39190610530565b60405180910390f35b6100d660048036038101906100d19190610498565b610219565b6040516100e391906104fa565b60405180910390f35b61010660048036038101906101019190610577565b610247565b6040516101139190610623565b60405180910390f35b61013660048036038101906101319190610498565b6102f3565b005b600061014382610172565b61014c57600080fd5b60008260405161015c9190610681565b9081526020016040518091039020549050919050565b600080600090505b60018054905081101561020e57826040516020016101989190610681565b60405160208183030381529060405280519060200120600182815481106101c2576101c1610698565b5b906000526020600020016040516020016101dc91906107bf565b6040516020818303038152906040528051906020012003610201576001915050610214565b808060010191505061017a565b50600090505b919050565b6000818051602081018201805184825260208301602085012081835280955050505050506000915090505481565b6001818154811061025757600080fd5b906000526020600020016000915090508054610272906106f6565b80601f016020809104026020016040519081016040528092919081815260200182805461029e906106f6565b80156102eb5780601f106102c0576101008083540402835291602001916102eb565b820191906000526020600020905b8154815290600101906020018083116102ce57829003601f168201915b505050505081565b6102fc81610172565b61030557600080fd5b60016000826040516103179190610681565b908152602001604051809103902060008282546103349190610805565b9250508190555050565b6000604051905090565b600080fd5b600080fd5b600080fd5b600080fd5b6000601f19601f8301169050919050565b7f4e487b7100000000000000000000000000000000000000000000000000000000600052604160045260246000fd5b6103a58261035c565b810181811067ffffffffffffffff821117156103c4576103c361036d565b5b80604052505050565b60006103d761033e565b90506103e3828261039c565b919050565b600067ffffffffffffffff8211156104035761040261036d565b5b61040c8261035c565b9050602081019050919050565b82818337600083830152505050565b600061043b610436846103e8565b6103cd565b90508281526020810184848401111561045757610456610357565b5b610462848285610419565b509392505050565b600082601f83011261047f5761047e610352565b5b813561048f848260208601610428565b91505092915050565b6000602082840312156104ae576104ad610348565b5b600082013567ffffffffffffffff8111156104cc576104cb61034d565b5b6104d88482850161046a565b91505092915050565b6000819050919050565b6104f4816104e1565b82525050565b600060208201905061050f60008301846104eb565b92915050565b60008115159050919050565b61052a81610515565b82525050565b60006020820190506105456000830184610521565b92915050565b610554816104e1565b811461055f57600080fd5b50565b6000813590506105718161054b565b92915050565b60006020828403121561058d5761058c610348565b5b600061059b84828501610562565b91505092915050565b600081519050919050565b600082825260208201905092915050565b60005b838110156105de5780820151818401526020810190506105c3565b60008484015250505050565b60006105f5826105a4565b6105ff81856105af565b935061060f8185602086016105c0565b6106188161035c565b840191505092915050565b6000602082019050818103600083015261063d81846105ea565b905092915050565b600081905092915050565b600061065b826105a4565b6106658185610645565b93506106758185602086016105c0565b80840191505092915050565b600061068d8284610650565b915081905092915050565b7f4e487b7100000000000000000000000000000000000000000000000000000000600052603260045260246000fd5b7f4e487b7100000000000000000000000000000000000000000000000000000000600052602260045260246000fd5b6000600282049050600182168061070e57607f821691505b602082108103610721576107206106c7565b5b50919050565b60008190508160005260206000209050919050565b60008154610749816106f6565b6107538186610645565b9450600182166000811461076e5760018114610783576107b6565b60ff19831686528115158202860193506107b6565b61078c85610727565b60005b838110156107ae5781548189015260018201915060208101905061078f565b838801955050505b50505092915050565b60006107cb828461073c565b915081905092915050565b7f4e487b7100000000000000000000000000000000000000000000000000000000600052601160045260246000fd5b6000610810826104e1565b915061081b836104e1565b9250828201905080821115610833576108326107d6565b5b9291505056fea2646970667358221220307d0061f9ccea733f1ba10d2e46b94f2cfdade89b06a4019606d0601156900e64736f6c63430008210033",
					"opcodes": "PUSH1 0x80 PUSH1 0x40 MSTORE CALLVALUE DUP1 ISZERO PUSH2 0x10 JUMPI PUSH1 0x0 DUP1 REVERT JUMPDEST POP PUSH1 0x40 MLOAD PUSH2 0x1220 CODESIZE SUB DUP1 PUSH2 0x1220 DUP4 CODECOPY DUP2 DUP2 ADD PUSH1 0x40 MSTORE DUP2 ADD SWAP1 PUSH2 0x32 SWAP2 SWAP1 PUSH2 0x2A3 JUMP JUMPDEST DUP1 PUSH1 0x1 SWAP1 DUP2 PUSH2 0x41 SWAP2 SWAP1 PUSH2 0x93F JUMP JUMPDEST POP POP PUSH2 0x9A2 JUMP JUMPDEST PUSH1 0x0 PUSH1 0x40 MLOAD SWAP1 POP SWAP1 JUMP JUMPDEST PUSH1 0x0 DUP1 REVERT JUMPDEST PUSH1 0x0 DUP1 REVERT JUMPDEST PUSH1 0x0 DUP1 REVERT JUMPDEST PUSH1 0x0 PUSH1 0x1F NOT PUSH1 0x1F DUP4 ADD AND SWAP1 POP SWAP2 SWAP1 POP JUMP JUMPDEST PUSH32 0x4E487B7100000000000000000000000000000000000000000000000000000000 PUSH1 0x0 MSTORE PUSH1 0x41 PUSH1 0x4 MSTORE PUSH1 0x24 PUSH1 0x0 REVERT JUMPDEST PUSH2 0xAA DUP3 PUSH2 0x61 JUMP JUMPDEST DUP2 ADD DUP2 DUP2 LT PUSH8 0xFFFFFFFFFFFFFFFF DUP3 GT OR ISZERO PUSH2 0xC9 JUMPI PUSH2 0xC8 PUSH2 0x72 JUMP JUMPDEST JUMPDEST DUP1 PUSH1 0x40 MSTORE POP POP POP JUMP JUMPDEST PUSH1 0x0 PUSH2 0xDC PUSH2 0x48 JUMP JUMPDEST SWAP1 POP PUSH2 0xE8 DUP3 DUP3 PUSH2 0xA1 JUMP JUMPDEST SWAP2 SWAP1 POP JUMP JUMPDEST PUSH1 0x0 PUSH8 0xFFFFFFFFFFFFFFFF DUP3 GT ISZERO PUSH2 0x108 JUMPI PUSH2 0x107 PUSH2 0x72 JUMP JUMPDEST JUMPDEST PUSH1 0x20 DUP3 MUL SWAP1 POP PUSH1 0x20 DUP2 ADD SWAP1 POP SWAP2 SWAP1 POP JUMP JUMPDEST PUSH1 0x0 DUP1 REVERT JUMPDEST PUSH1 0x0 DUP1 REVERT JUMPDEST PUSH1 0x0 PUSH8 0xFFFFFFFFFFFFFFFF DUP3 GT ISZERO PUSH2 0x13E JUMPI PUSH2 0x13D PUSH2 0x72 JUMP JUMPDEST JUMPDEST PUSH2 0x147 DUP3 PUSH2 0x61 JUMP JUMPDEST SWAP1 POP PUSH1 0x20 DUP2 ADD SWAP1 POP SWAP2 SWAP1 POP JUMP JUMPDEST PUSH1 0x0 JUMPDEST DUP4 DUP2 LT ISZERO PUSH2 0x172 JUMPI DUP1 DUP3 ADD MLOAD DUP2 DUP5 ADD MSTORE PUSH1 0x20 DUP2 ADD SWAP1 POP PUSH2 0x157 JUMP JUMPDEST PUSH1 0x0 DUP5 DUP5 ADD MSTORE POP POP POP POP JUMP JUMPDEST PUSH1 0x0 PUSH2 0x191 PUSH2 0x18C DUP5 PUSH2 0x123 JUMP JUMPDEST PUSH2 0xD2 JUMP JUMPDEST SWAP1 POP DUP3 DUP2 MSTORE PUSH1 0x20 DUP2 ADD DUP5 DUP5 DUP5 ADD GT ISZERO PUSH2 0x1AD JUMPI PUSH2 0x1AC PUSH2 0x11E JUMP JUMPDEST JUMPDEST PUSH2 0x1B8 DUP5 DUP3 DUP6 PUSH2 0x154 JUMP JUMPDEST POP SWAP4 SWAP3 POP POP POP JUMP JUMPDEST PUSH1 0x0 DUP3 PUSH1 0x1F DUP4 ADD SLT PUSH2 0x1D5 JUMPI PUSH2 0x1D4 PUSH2 0x5C JUMP JUMPDEST JUMPDEST DUP2 MLOAD PUSH2 0x1E5 DUP5 DUP3 PUSH1 0x20 DUP7 ADD PUSH2 0x17E JUMP JUMPDEST SWAP2 POP POP SWAP3 SWAP2 POP POP JUMP JUMPDEST PUSH1 0x0 PUSH2 0x201 PUSH2 0x1FC DUP5 PUSH2 0xED JUMP JUMPDEST PUSH2 0xD2 JUMP JUMPDEST SWAP1 POP DUP1 DUP4 DUP3 MSTORE PUSH1 0x20 DUP3 ADD SWAP1 POP PUSH1 0x20 DUP5 MUL DUP4 ADD DUP6 DUP2 GT ISZERO PUSH2 0x224 JUMPI PUSH2 0x223 PUSH2 0x119 JUMP JUMPDEST JUMPDEST DUP4 JUMPDEST DUP2 DUP2 LT ISZERO PUSH2 0x26B JUMPI DUP1 MLOAD PUSH8 0xFFFFFFFFFFFFFFFF DUP2 GT ISZERO PUSH2 0x249 JUMPI PUSH2 0x248 PUSH2 0x5C JUMP JUMPDEST JUMPDEST DUP1 DUP7 ADD PUSH2 0x256 DUP10 DUP3 PUSH2 0x1C0 JUMP JUMPDEST DUP6 MSTORE PUSH1 0x20 DUP6 ADD SWAP5 POP POP POP PUSH1 0x20 DUP2 ADD SWAP1 POP PUSH2 0x226 JUMP JUMPDEST POP POP POP SWAP4 SWAP3 POP POP POP JUMP JUMPDEST PUSH1 0x0 DUP3 PUSH1 0x1F DUP4 ADD SLT PUSH2 0x28A JUMPI PUSH2 0x289 PUSH2 0x5C JUMP JUMPDEST JUMPDEST DUP2 MLOAD PUSH2 0x29A DUP5 DUP3 PUSH1 0x20 DUP7 ADD PUSH2 0x1EE JUMP JUMPDEST SWAP2 POP POP SWAP3 SWAP2 POP POP JUMP JUMPDEST PUSH1 0x0 PUSH1 0x20 DUP3 DUP5 SUB SLT ISZERO PUSH2 0x2B9 JUMPI PUSH2 0x2B8 PUSH2 0x52 JUMP JUMPDEST JUMPDEST PUSH1 0x0 DUP3 ADD MLOAD PUSH8 0xFFFFFFFFFFFFFFFF DUP2 GT ISZERO PUSH2 0x2D7 JUMPI PUSH2 0x2D6 PUSH2 0x57 JUMP JUMPDEST JUMPDEST PUSH2 0x2E3 DUP5 DUP3 DUP6 ADD PUSH2 0x275 JUMP JUMPDEST SWAP2 POP POP SWAP3 SWAP2 POP POP JUMP JUMPDEST PUSH1 0x0 DUP2 SWAP1 POP PUSH1 0x20 DUP3 ADD SWAP1 POP SWAP2 SWAP1 POP JUMP JUMPDEST PUSH1 0x0 DUP2 SLOAD SWAP1 POP SWAP2 SWAP1 POP JUMP JUMPDEST PUSH1 0x0 DUP2 SWAP1 POP SWAP2 SWAP1 POP JUMP JUMPDEST PUSH1 0x0 DUP2 SWAP1 POP PUSH1 0x1 DUP1 PUSH1 0x1 SUB DUP4 ADD DIV SWAP1 POP SWAP2 SWAP1 POP JUMP JUMPDEST PUSH1 0x0 DUP2 SWAP1 POP DUP2 PUSH1 0x0 MSTORE PUSH1 0x20 PUSH1 0x0 KECCAK256 SWAP1 POP SWAP2 SWAP1 POP JUMP JUMPDEST PUSH32 0x4E487B7100000000000000000000000000000000000000000000000000000000 PUSH1 0x0 MSTORE PUSH1 0x22 PUSH1 0x4 MSTORE PUSH1 0x24 PUSH1 0x0 REVERT JUMPDEST PUSH1 0x0 PUSH1 0x2 DUP3 DIV SWAP1 POP PUSH1 0x1 DUP3 AND DUP1 PUSH2 0x382 JUMPI PUSH1 0x7F DUP3 AND SWAP2 POP JUMPDEST PUSH1 0x20 DUP3 LT DUP2 SUB PUSH2 0x395 JUMPI PUSH2 0x394 PUSH2 0x33B JUMP JUMPDEST JUMPDEST POP SWAP2 SWAP1 POP JUMP JUMPDEST PUSH1 0x0 DUP2 SWAP1 POP DUP2 PUSH1 0x0 MSTORE PUSH1 0x20 PUSH1 0x0 KECCAK256 SWAP1 POP SWAP2 SWAP1 POP JUMP JUMPDEST PUSH1 0x0 DUP3 DUP3 SHR SWAP1 POP SWAP3 SWAP2 POP POP JUMP JUMPDEST PUSH2 0x3ED PUSH32 0xFFFFFFFFFFFFFFFFFFFFFFFFFFFFFFFFFFFFFFFFFFFFFFFFFFFFFFFFFFFFFFFF DUP4 PUSH1 0x20 SUB PUSH1 0x8 MUL PUSH2 0x3B0 JUMP JUMPDEST DUP2 SLOAD DUP2 AND DUP3 SSTORE POP POP POP JUMP JUMPDEST PUSH1 0x0 DUP3 DUP3 SHL SWAP1 POP SWAP3 SWAP2 POP POP JUMP JUMPDEST PUSH1 0x0 PUSH1 0x8 DUP4 MUL PUSH2 0x435 PUSH32 0xFFFFFFFFFFFFFFFFFFFFFFFFFFFFFFFFFFFFFFFFFFFFFFFFFFFFFFFFFFFFFFFF DUP3 PUSH2 0x3F8 JUMP JUMPDEST PUSH2 0x43F DUP7 DUP4 PUSH2 0x3F8 JUMP JUMPDEST SWAP6 POP DUP1 NOT DUP5 AND SWAP4 POP DUP1 DUP7 AND DUP5 OR SWAP3 POP POP POP SWAP4 SWAP3 POP POP POP JUMP JUMPDEST PUSH1 0x0 DUP2 SWAP1 POP SWAP2 SWAP1 POP JUMP JUMPDEST PUSH1 0x0 PUSH2 0x47C PUSH2 0x477 PUSH2 0x472 DUP5 PUSH2 0x307 JUMP JUMPDEST PUSH2 0x457 JUMP JUMPDEST PUSH2 0x307 JUMP JUMPDEST SWAP1 POP SWAP2 SWAP1 POP JUMP JUMPDEST PUSH1 0x0 DUP2 SWAP1 POP SWAP2 SWAP1 POP JUMP JUMPDEST PUSH2 0x496 DUP4 PUSH2 0x461 JUMP JUMPDEST PUSH2 0x4AA PUSH2 0x4A2 DUP3 PUSH2 0x483 JUMP JUMPDEST DUP5 DUP5 SLOAD PUSH2 0x405 JUMP JUMPDEST DUP3 SSTORE POP POP POP POP JUMP JUMPDEST PUSH1 0x0 SWAP1 JUMP JUMPDEST PUSH2 0x4BF PUSH2 0x4B2 JUMP JUMPDEST PUSH2 0x4CA DUP2 DUP5 DUP5 PUSH2 0x48D JUMP JUMPDEST POP POP POP JUMP JUMPDEST PUSH1 0x0 JUMPDEST DUP3 DUP2 LT ISZERO PUSH2 0x4F2 JUMPI PUSH2 0x4E7 PUSH1 0x0 DUP3 DUP5 ADD PUSH2 0x4B7 JUMP JUMPDEST PUSH1 0x1 DUP2 ADD SWAP1 POP PUSH2 0x4D2 JUMP JUMPDEST POP POP POP JUMP JUMPDEST PUSH1 0x0 PUSH2 0x508 PUSH1 0x0 NOT DUP5 PUSH1 0x8 MUL PUSH2 0x3B0 JUMP JUMPDEST NOT DUP1 DUP4 AND SWAP2 POP POP SWAP3 SWAP2 POP POP JUMP JUMPDEST PUSH1 0x0 PUSH2 0x521 DUP4 DUP4 PUSH2 0x4F7 JUMP JUMPDEST SWAP2 POP DUP3 PUSH1 0x2 MUL DUP3 OR SWAP1 POP SWAP3 SWAP2 POP POP JUMP JUMPDEST PUSH2 0x53A DUP2 PUSH2 0x39B JUMP JUMPDEST PUSH2 0x545 DUP4 DUP3 SLOAD PUSH2 0x515 JUMP JUMPDEST DUP1 DUP4 SSTORE PUSH1 0x0 DUP3 SSTORE POP POP POP POP JUMP JUMPDEST PUSH1 0x0 PUSH1 0x20 PUSH1 0x1F DUP4 ADD DIV SWAP1 POP SWAP2 SWAP1 POP JUMP JUMPDEST PUSH1 0x20 DUP5 LT PUSH1 0x0 DUP2 EQ PUSH2 0x5BE JUMPI PUSH1 0x1F DUP5 GT PUSH1 0x1 DUP2 EQ PUSH2 0x58B JUMPI PUSH2 0x584 DUP7 DUP6 PUSH2 0x515 JUMP JUMPDEST DUP4 SSTORE PUSH2 0x5B8 JUMP JUMPDEST PUSH2 0x594 DUP4 PUSH2 0x39B JUMP JUMPDEST PUSH2 0x5AC PUSH1 0x1 PUSH2 0x5A2 DUP9 PUSH2 0x552 JUMP JUMPDEST SUB PUSH1 0x1 DUP4 ADD PUSH2 0x4CF JUMP JUMPDEST PUSH2 0x5B6 DUP8 DUP6 PUSH2 0x531 JUMP JUMPDEST POP JUMPDEST POP PUSH2 0x618 JUMP JUMPDEST PUSH2 0x5C7 DUP6 PUSH2 0x552 JUMP JUMPDEST PUSH2 0x5D0 DUP6 PUSH2 0x552 JUMP JUMPDEST PUSH2 0x5D9 DUP5 PUSH2 0x39B JUMP JUMPDEST DUP3 DUP2 ADD PUSH1 0x1F DUP10 AND DUP1 ISZERO PUSH2 0x5F4 JUMPI PUSH2 0x5F3 DUP2 PUSH1 0x1 DUP5 SUB PUSH2 0x3BD JUMP JUMPDEST JUMPDEST DUP5 DUP5 GT ISZERO PUSH2 0x609 JUMPI PUSH2 0x608 DUP6 DUP6 SUB DUP4 PUSH2 0x4CF JUMP JUMPDEST JUMPDEST PUSH1 0x1 DUP11 PUSH1 0x2 MUL OR DUP8 SSTORE POP POP POP POP POP JUMPDEST POP POP POP POP POP JUMP JUMPDEST PUSH9 0x10000000000000000 DUP5 GT ISZERO PUSH2 0x639 JUMPI PUSH2 0x638 PUSH2 0x72 JUMP JUMPDEST JUMPDEST PUSH1 0x20 DUP4 LT PUSH1 0x0 DUP2 EQ PUSH2 0x684 JUMPI PUSH1 0x20 DUP6 LT PUSH1 0x0 DUP2 EQ PUSH2 0x662 JUMPI PUSH2 0x65B DUP7 DUP6 PUSH2 0x515 JUMP JUMPDEST DUP4 SSTORE PUSH2 0x67E JUMP JUMPDEST DUP4 PUSH1 0xFF NOT AND SWAP4 POP DUP4 PUSH2 0x673 DUP5 PUSH2 0x39B JUMP JUMPDEST SSTORE PUSH1 0x1 DUP7 PUSH1 0x2 MUL ADD DUP4 SSTORE JUMPDEST POP PUSH2 0x68E JUMP JUMPDEST PUSH1 0x1 DUP6 PUSH1 0x2 MUL ADD DUP3 SSTORE JUMPDEST POP POP POP POP POP JUMP JUMPDEST DUP1 SLOAD PUSH2 0x6A0 DUP2 PUSH2 0x36A JUMP JUMPDEST DUP1 DUP5 GT ISZERO PUSH2 0x6B5 JUMPI PUSH2 0x6B4 DUP5 DUP3 DUP5 DUP7 PUSH2 0x61F JUMP JUMPDEST JUMPDEST DUP1 DUP5 LT ISZERO PUSH2 0x6CA JUMPI PUSH2 0x6C9 DUP5 DUP3 DUP5 DUP7 PUSH2 0x562 JUMP JUMPDEST JUMPDEST POP POP POP POP JUMP JUMPDEST DUP3 DUP2 LT ISZERO PUSH2 0x6F0 JUMPI PUSH2 0x6E5 PUSH1 0x0 DUP3 DUP5 ADD PUSH2 0x4B7 JUMP JUMPDEST PUSH1 0x1 DUP2 ADD SWAP1 POP PUSH2 0x6D0 JUMP JUMPDEST POP POP POP JUMP JUMPDEST PUSH2 0x700 PUSH1 0x0 DUP3 PUSH2 0x695 JUMP JUMPDEST POP JUMP JUMPDEST PUSH32 0x4E487B7100000000000000000000000000000000000000000000000000000000 PUSH1 0x0 MSTORE PUSH1 0x0 PUSH1 0x4 MSTORE PUSH1 0x24 PUSH1 0x0 REVERT JUMPDEST PUSH1 0x0 DUP3 EQ PUSH2 0x743 JUMPI PUSH2 0x742 PUSH2 0x703 JUMP JUMPDEST JUMPDEST PUSH2 0x74C DUP2 PUSH2 0x6F5 JUMP JUMPDEST POP POP JUMP JUMPDEST PUSH1 0x0 JUMPDEST DUP3 DUP2 LT ISZERO PUSH2 0x773 JUMPI PUSH2 0x768 PUSH1 0x0 DUP3 DUP5 ADD PUSH2 0x732 JUMP JUMPDEST PUSH1 0x1 DUP2 ADD SWAP1 POP PUSH2 0x753 JUMP JUMPDEST POP POP POP JUMP JUMPDEST DUP2 DUP4 LT ISZERO PUSH2 0x7AF JUMPI PUSH2 0x789 DUP3 PUSH2 0x311 JUMP JUMPDEST PUSH2 0x792 DUP5 PUSH2 0x311 JUMP JUMPDEST PUSH2 0x79B DUP4 PUSH2 0x326 JUMP JUMPDEST DUP2 DUP2 ADD PUSH2 0x7AA DUP4 DUP6 SUB DUP3 PUSH2 0x750 JUMP JUMPDEST POP POP POP POP JUMPDEST POP POP POP JUMP JUMPDEST PUSH9 0x10000000000000000 DUP3 GT ISZERO PUSH2 0x7CE JUMPI PUSH2 0x7CD PUSH2 0x72 JUMP JUMPDEST JUMPDEST PUSH2 0x7D7 DUP2 PUSH2 0x2FC JUMP JUMPDEST DUP3 DUP3 SSTORE PUSH2 0x7E5 DUP4 DUP3 DUP5 PUSH2 0x778 JUMP JUMPDEST POP POP POP JUMP JUMPDEST PUSH1 0x0 DUP2 MLOAD SWAP1 POP SWAP2 SWAP1 POP JUMP JUMPDEST PUSH1 0x0 DUP2 MLOAD SWAP1 POP SWAP2 SWAP1 POP JUMP JUMPDEST PUSH1 0x0 DUP2 MLOAD SWAP1 POP SWAP2 SWAP1 POP JUMP JUMPDEST PUSH1 0x1F DUP3 GT ISZERO PUSH2 0x85A JUMPI DUP3 DUP3 GT ISZERO PUSH2 0x859 JUMPI PUSH2 0x825 DUP2 PUSH2 0x39B JUMP JUMPDEST PUSH2 0x82E DUP4 PUSH2 0x552 JUMP JUMPDEST PUSH2 0x837 DUP6 PUSH2 0x552 JUMP JUMPDEST PUSH1 0x20 DUP7 LT ISZERO PUSH2 0x845 JUMPI PUSH1 0x0 SWAP1 POP JUMPDEST DUP1 DUP4 ADD PUSH2 0x854 DUP3 DUP5 SUB DUP3 PUSH2 0x4CF JUMP JUMPDEST POP POP POP POP JUMPDEST JUMPDEST POP POP POP JUMP JUMPDEST PUSH2 0x868 DUP3 PUSH2 0x800 JUMP JUMPDEST PUSH8 0xFFFFFFFFFFFFFFFF DUP2 GT ISZERO PUSH2 0x881 JUMPI PUSH2 0x880 PUSH2 0x72 JUMP JUMPDEST JUMPDEST PUSH2 0x88B DUP3 SLOAD PUSH2 0x36A JUMP JUMPDEST PUSH2 0x896 DUP3 DUP3 DUP6 PUSH2 0x80B JUMP JUMPDEST PUSH1 0x0 PUSH1 0x20 SWAP1 POP PUSH1 0x1F DUP4 GT PUSH1 0x1 DUP2 EQ PUSH2 0x8C9 JUMPI PUSH1 0x0 DUP5 ISZERO PUSH2 0x8B7 JUMPI DUP3 DUP8 ADD MLOAD SWAP1 POP JUMPDEST PUSH2 0x8C1 DUP6 DUP3 PUSH2 0x515 JUMP JUMPDEST DUP7 SSTORE POP PUSH2 0x929 JUMP JUMPDEST PUSH1 0x1F NOT DUP5 AND PUSH2 0x8D7 DUP7 PUSH2 0x39B JUMP JUMPDEST PUSH1 0x0 JUMPDEST DUP3 DUP2 LT ISZERO PUSH2 0x8FF JUMPI DUP5 DUP10 ADD MLOAD DUP3 SSTORE PUSH1 0x1 DUP3 ADD SWAP2 POP PUSH1 0x20 DUP6 ADD SWAP5 POP PUSH1 0x20 DUP2 ADD SWAP1 POP PUSH2 0x8DA JUMP JUMPDEST DUP7 DUP4 LT ISZERO PUSH2 0x91C JUMPI DUP5 DUP10 ADD MLOAD PUSH2 0x918 PUSH1 0x1F DUP10 AND DUP3 PUSH2 0x4F7 JUMP JUMPDEST DUP4 SSTORE POP JUMPDEST PUSH1 0x1 PUSH1 0x2 DUP9 MUL ADD DUP9 SSTORE POP POP POP JUMPDEST POP POP POP POP POP POP JUMP JUMPDEST PUSH2 0x93B DUP3 DUP3 PUSH2 0x85F JUMP JUMPDEST POP POP JUMP JUMPDEST PUSH2 0x948 DUP3 PUSH2 0x7EA JUMP JUMPDEST PUSH2 0x952 DUP2 DUP4 PUSH2 0x7B4 JUMP JUMPDEST PUSH2 0x95B DUP4 PUSH2 0x2EC JUMP JUMPDEST PUSH2 0x964 DUP4 PUSH2 0x326 JUMP JUMPDEST PUSH1 0x0 JUMPDEST DUP4 DUP2 LT ISZERO PUSH2 0x99A JUMPI PUSH2 0x978 DUP4 PUSH2 0x7F5 JUMP JUMPDEST PUSH2 0x982 DUP2 DUP5 PUSH2 0x931 JUMP JUMPDEST PUSH1 0x20 DUP5 ADD SWAP4 POP PUSH1 0x1 DUP4 ADD SWAP3 POP POP PUSH1 0x1 DUP2 ADD SWAP1 POP PUSH2 0x967 JUMP JUMPDEST POP POP POP POP POP POP JUMP JUMPDEST PUSH2 0x86F DUP1 PUSH2 0x9B1 PUSH1 0x0 CODECOPY PUSH1 0x0 RETURN INVALID PUSH1 0x80 PUSH1 0x40 MSTORE CALLVALUE DUP1 ISZERO PUSH2 0x10 JUMPI PUSH1 0x0 DUP1 REVERT JUMPDEST POP PUSH1 0x4 CALLDATASIZE LT PUSH2 0x57 JUMPI PUSH1 0x0 CALLDATALOAD PUSH1 0xE0 SHR DUP1 PUSH4 0x3F17C948 EQ PUSH2 0x5C JUMPI DUP1 PUSH4 0x538C91B2 EQ PUSH2 0x8C JUMPI DUP1 PUSH4 0xA62B110F EQ PUSH2 0xBC JUMPI DUP1 PUSH4 0xB13C744B EQ PUSH2 0xEC JUMPI DUP1 PUSH4 0xE89927EF EQ PUSH2 0x11C JUMPI JUMPDEST PUSH1 0x0 DUP1 REVERT JUMPDEST PUSH2 0x76 PUSH1 0x4 DUP1 CALLDATASIZE SUB DUP2 ADD SWAP1 PUSH2 0x71 SWAP2 SWAP1 PUSH2 0x498 JUMP JUMPDEST PUSH2 0x138 JUMP JUMPDEST PUSH1 0x40 MLOAD PUSH2 0x83 SWAP2 SWAP1 PUSH2 0x4FA JUMP JUMPDEST PUSH1 0x40 MLOAD DUP1 SWAP2 SUB SWAP1 RETURN JUMPDEST PUSH2 0xA6 PUSH1 0x4 DUP1 CALLDATASIZE SUB DUP2 ADD SWAP1 PUSH2 0xA1 SWAP2 SWAP1 PUSH2 0x498 JUMP JUMPDEST PUSH2 0x172 JUMP JUMPDEST PUSH1 0x40 MLOAD PUSH2 0xB3 SWAP2 SWAP1 PUSH2 0x530 JUMP JUMPDEST PUSH1 0x40 MLOAD DUP1 SWAP2 SUB SWAP1 RETURN JUMPDEST PUSH2 0xD6 PUSH1 0x4 DUP1 CALLDATASIZE SUB DUP2 ADD SWAP1 PUSH2 0xD1 SWAP2 SWAP1 PUSH2 0x498 JUMP JUMPDEST PUSH2 0x219 JUMP JUMPDEST PUSH1 0x40 MLOAD PUSH2 0xE3 SWAP2 SWAP1 PUSH2 0x4FA JUMP JUMPDEST PUSH1 0x40 MLOAD DUP1 SWAP2 SUB SWAP1 RETURN JUMPDEST PUSH2 0x106 PUSH1 0x4 DUP1 CALLDATASIZE SUB DUP2 ADD SWAP1 PUSH2 0x101 SWAP2 SWAP1 PUSH2 0x577 JUMP JUMPDEST PUSH2 0x247 JUMP JUMPDEST PUSH1 0x40 MLOAD PUSH2 0x113 SWAP2 SWAP1 PUSH2 0x623 JUMP JUMPDEST PUSH1 0x40 MLOAD DUP1 SWAP2 SUB SWAP1 RETURN JUMPDEST PUSH2 0x136 PUSH1 0x4 DUP1 CALLDATASIZE SUB DUP2 ADD SWAP1 PUSH2 0x131 SWAP2 SWAP1 PUSH2 0x498 JUMP JUMPDEST PUSH2 0x2F3 JUMP JUMPDEST STOP JUMPDEST PUSH1 0x0 PUSH2 0x143 DUP3 PUSH2 0x172 JUMP JUMPDEST PUSH2 0x14C JUMPI PUSH1 0x0 DUP1 REVERT JUMPDEST PUSH1 0x0 DUP3 PUSH1 0x40 MLOAD PUSH2 0x15C SWAP2 SWAP1 PUSH2 0x681 JUMP JUMPDEST SWAP1 DUP2 MSTORE PUSH1 0x20 ADD PUSH1 0x40 MLOAD DUP1 SWAP2 SUB SWAP1 KECCAK256 SLOAD SWAP1 POP SWAP2 SWAP1 POP JUMP JUMPDEST PUSH1 0x0 DUP1 PUSH1 0x0 SWAP1 POP JUMPDEST PUSH1 0x1 DUP1 SLOAD SWAP1 POP DUP2 LT ISZERO PUSH2 0x20E JUMPI DUP3 PUSH1 0x40 MLOAD PUSH1 0x20 ADD PUSH2 0x198 SWAP2 SWAP1 PUSH2 0x681 JUMP JUMPDEST PUSH1 0x40 MLOAD PUSH1 0x20 DUP2 DUP4 SUB SUB DUP2 MSTORE SWAP1 PUSH1 0x40 MSTORE DUP1 MLOAD SWAP1 PUSH1 0x20 ADD KECCAK256 PUSH1 0x1 DUP3 DUP2 SLOAD DUP2 LT PUSH2 0x1C2 JUMPI PUSH2 0x1C1 PUSH2 0x698 JUMP JUMPDEST JUMPDEST SWAP1 PUSH1 0x0 MSTORE PUSH1 0x20 PUSH1 0x0 KECCAK256 ADD PUSH1 0x40 MLOAD PUSH1 0x20 ADD PUSH2 0x1DC SWAP2 SWAP1 PUSH2 0x7BF JUMP JUMPDEST PUSH1 0x40 MLOAD PUSH1 0x20 DUP2 DUP4 SUB SUB DUP2 MSTORE SWAP1 PUSH1 0x40 MSTORE DUP1 MLOAD SWAP1 PUSH1 0x20 ADD KECCAK256 SUB PUSH2 0x201 JUMPI PUSH1 0x1 SWAP2 POP POP PUSH2 0x214 JUMP JUMPDEST DUP1 DUP1 PUSH1 0x1 ADD SWAP2 POP POP PUSH2 0x17A JUMP JUMPDEST POP PUSH1 0x0 SWAP1 POP JUMPDEST SWAP2 SWAP1 POP JUMP JUMPDEST PUSH1 0x0 DUP2 DUP1 MLOAD PUSH1 0x20 DUP2 ADD DUP3 ADD DUP1 MLOAD DUP5 DUP3 MSTORE PUSH1 0x20 DUP4 ADD PUSH1 0x20 DUP6 ADD KECCAK256 DUP2 DUP4 MSTORE DUP1 SWAP6 POP POP POP POP POP POP PUSH1 0x0 SWAP2 POP SWAP1 POP SLOAD DUP2 JUMP JUMPDEST PUSH1 0x1 DUP2 DUP2 SLOAD DUP2 LT PUSH2 0x257 JUMPI PUSH1 0x0 DUP1 REVERT JUMPDEST SWAP1 PUSH1 0x0 MSTORE PUSH1 0x20 PUSH1 0x0 KECCAK256 ADD PUSH1 0x0 SWAP2 POP SWAP1 POP DUP1 SLOAD PUSH2 0x272 SWAP1 PUSH2 0x6F6 JUMP JUMPDEST DUP1 PUSH1 0x1F ADD PUSH1 0x20 DUP1 SWAP2 DIV MUL PUSH1 0x20 ADD PUSH1 0x40 MLOAD SWAP1 DUP2 ADD PUSH1 0x40 MSTORE DUP1 SWAP3 SWAP2 SWAP1 DUP2 DUP2 MSTORE PUSH1 0x20 ADD DUP3 DUP1 SLOAD PUSH2 0x29E SWAP1 PUSH2 0x6F6 JUMP JUMPDEST DUP1 ISZERO PUSH2 0x2EB JUMPI DUP1 PUSH1 0x1F LT PUSH2 0x2C0 JUMPI PUSH2 0x100 DUP1 DUP4 SLOAD DIV MUL DUP4 MSTORE SWAP2 PUSH1 0x20 ADD SWAP2 PUSH2 0x2EB JUMP JUMPDEST DUP3 ADD SWAP2 SWAP1 PUSH1 0x0 MSTORE PUSH1 0x20 PUSH1 0x0 KECCAK256 SWAP1 JUMPDEST DUP2 SLOAD DUP2 MSTORE SWAP1 PUSH1 0x1 ADD SWAP1 PUSH1 0x20 ADD DUP1 DUP4 GT PUSH2 0x2CE JUMPI DUP3 SWAP1 SUB PUSH1 0x1F AND DUP3 ADD SWAP2 JUMPDEST POP POP POP POP POP DUP2 JUMP JUMPDEST PUSH2 0x2FC DUP2 PUSH2 0x172 JUMP JUMPDEST PUSH2 0x305 JUMPI PUSH1 0x0 DUP1 REVERT JUMPDEST PUSH1 0x1 PUSH1 0x0 DUP3 PUSH1 0x40 MLOAD PUSH2 0x317 SWAP2 SWAP1 PUSH2 0x681 JUMP JUMPDEST SWAP1 DUP2 MSTORE PUSH1 0x20 ADD PUSH1 0x40 MLOAD DUP1 SWAP2 SUB SWAP1 KECCAK256 PUSH1 0x0 DUP3 DUP3 SLOAD PUSH2 0x334 SWAP2 SWAP1 PUSH2 0x805 JUMP JUMPDEST SWAP3 POP POP DUP2 SWAP1 SSTORE POP POP JUMP JUMPDEST PUSH1 0x0 PUSH1 0x40 MLOAD SWAP1 POP SWAP1 JUMP JUMPDEST PUSH1 0x0 DUP1 REVERT JUMPDEST PUSH1 0x0 DUP1 REVERT JUMPDEST PUSH1 0x0 DUP1 REVERT JUMPDEST PUSH1 0x0 DUP1 REVERT JUMPDEST PUSH1 0x0 PUSH1 0x1F NOT PUSH1 0x1F DUP4 ADD AND SWAP1 POP SWAP2 SWAP1 POP JUMP JUMPDEST PUSH32 0x4E487B7100000000000000000000000000000000000000000000000000000000 PUSH1 0x0 MSTORE PUSH1 0x41 PUSH1 0x4 MSTORE PUSH1 0x24 PUSH1 0x0 REVERT JUMPDEST PUSH2 0x3A5 DUP3 PUSH2 0x35C JUMP JUMPDEST DUP2 ADD DUP2 DUP2 LT PUSH8 0xFFFFFFFFFFFFFFFF DUP3 GT OR ISZERO PUSH2 0x3C4 JUMPI PUSH2 0x3C3 PUSH2 0x36D JUMP JUMPDEST JUMPDEST DUP1 PUSH1 0x40 MSTORE POP POP POP JUMP JUMPDEST PUSH1 0x0 PUSH2 0x3D7 PUSH2 0x33E JUMP JUMPDEST SWAP1 POP PUSH2 0x3E3 DUP3 DUP3 PUSH2 0x39C JUMP JUMPDEST SWAP2 SWAP1 POP JUMP JUMPDEST PUSH1 0x0 PUSH8 0xFFFFFFFFFFFFFFFF DUP3 GT ISZERO PUSH2 0x403 JUMPI PUSH2 0x402 PUSH2 0x36D JUMP JUMPDEST JUMPDEST PUSH2 0x40C DUP3 PUSH2 0x35C JUMP JUMPDEST SWAP1 POP PUSH1 0x20 DUP2 ADD SWAP1 POP SWAP2 SWAP1 POP JUMP JUMPDEST DUP3 DUP2 DUP4 CALLDATACOPY PUSH1 0x0 DUP4 DUP4 ADD MSTORE POP POP POP JUMP JUMPDEST PUSH1 0x0 PUSH2 0x43B PUSH2 0x436 DUP5 PUSH2 0x3E8 JUMP JUMPDEST PUSH2 0x3CD JUMP JUMPDEST SWAP1 POP DUP3 DUP2 MSTORE PUSH1 0x20 DUP2 ADD DUP5 DUP5 DUP5 ADD GT ISZERO PUSH2 0x457 JUMPI PUSH2 0x456 PUSH2 0x357 JUMP JUMPDEST JUMPDEST PUSH2 0x462 DUP5 DUP3 DUP6 PUSH2 0x419 JUMP JUMPDEST POP SWAP4 SWAP3 POP POP POP JUMP JUMPDEST PUSH1 0x0 DUP3 PUSH1 0x1F DUP4 ADD SLT PUSH2 0x47F JUMPI PUSH2 0x47E PUSH2 0x352 JUMP JUMPDEST JUMPDEST DUP2 CALLDATALOAD PUSH2 0x48F DUP5 DUP3 PUSH1 0x20 DUP7 ADD PUSH2 0x428 JUMP JUMPDEST SWAP2 POP POP SWAP3 SWAP2 POP POP JUMP JUMPDEST PUSH1 0x0 PUSH1 0x20 DUP3 DUP5 SUB SLT ISZERO PUSH2 0x4AE JUMPI PUSH2 0x4AD PUSH2 0x348 JUMP JUMPDEST JUMPDEST PUSH1 0x0 DUP3 ADD CALLDATALOAD PUSH8 0xFFFFFFFFFFFFFFFF DUP2 GT ISZERO PUSH2 0x4CC JUMPI PUSH2 0x4CB PUSH2 0x34D JUMP JUMPDEST JUMPDEST PUSH2 0x4D8 DUP5 DUP3 DUP6 ADD PUSH2 0x46A JUMP JUMPDEST SWAP2 POP POP SWAP3 SWAP2 POP POP JUMP JUMPDEST PUSH1 0x0 DUP2 SWAP1 POP SWAP2 SWAP1 POP JUMP JUMPDEST PUSH2 0x4F4 DUP2 PUSH2 0x4E1 JUMP JUMPDEST DUP3 MSTORE POP POP JUMP JUMPDEST PUSH1 0x0 PUSH1 0x20 DUP3 ADD SWAP1 POP PUSH2 0x50F PUSH1 0x0 DUP4 ADD DUP5 PUSH2 0x4EB JUMP JUMPDEST SWAP3 SWAP2 POP POP JUMP JUMPDEST PUSH1 0x0 DUP2 ISZERO ISZERO SWAP1 POP SWAP2 SWAP1 POP JUMP JUMPDEST PUSH2 0x52A DUP2 PUSH2 0x515 JUMP JUMPDEST DUP3 MSTORE POP POP JUMP JUMPDEST PUSH1 0x0 PUSH1 0x20 DUP3 ADD SWAP1 POP PUSH2 0x545 PUSH1 0x0 DUP4 ADD DUP5 PUSH2 0x521 JUMP JUMPDEST SWAP3 SWAP2 POP POP JUMP JUMPDEST PUSH2 0x554 DUP2 PUSH2 0x4E1 JUMP JUMPDEST DUP2 EQ PUSH2 0x55F JUMPI PUSH1 0x0 DUP1 REVERT JUMPDEST POP JUMP JUMPDEST PUSH1 0x0 DUP2 CALLDATALOAD SWAP1 POP PUSH2 0x571 DUP2 PUSH2 0x54B JUMP JUMPDEST SWAP3 SWAP2 POP POP JUMP JUMPDEST PUSH1 0x0 PUSH1 0x20 DUP3 DUP5 SUB SLT ISZERO PUSH2 0x58D JUMPI PUSH2 0x58C PUSH2 0x348 JUMP JUMPDEST JUMPDEST PUSH1 0x0 PUSH2 0x59B DUP5 DUP3 DUP6 ADD PUSH2 0x562 JUMP JUMPDEST SWAP2 POP POP SWAP3 SWAP2 POP POP JUMP JUMPDEST PUSH1 0x0 DUP2 MLOAD SWAP1 POP SWAP2 SWAP1 POP JUMP JUMPDEST PUSH1 0x0 DUP3 DUP3 MSTORE PUSH1 0x20 DUP3 ADD SWAP1 POP SWAP3 SWAP2 POP POP JUMP JUMPDEST PUSH1 0x0 JUMPDEST DUP4 DUP2 LT ISZERO PUSH2 0x5DE JUMPI DUP1 DUP3 ADD MLOAD DUP2 DUP5 ADD MSTORE PUSH1 0x20 DUP2 ADD SWAP1 POP PUSH2 0x5C3 JUMP JUMPDEST PUSH1 0x0 DUP5 DUP5 ADD MSTORE POP POP POP POP JUMP JUMPDEST PUSH1 0x0 PUSH2 0x5F5 DUP3 PUSH2 0x5A4 JUMP JUMPDEST PUSH2 0x5FF DUP2 DUP6 PUSH2 0x5AF JUMP JUMPDEST SWAP4 POP PUSH2 0x60F DUP2 DUP6 PUSH1 0x20 DUP7 ADD PUSH2 0x5C0 JUMP JUMPDEST PUSH2 0x618 DUP2 PUSH2 0x35C JUMP JUMPDEST DUP5 ADD SWAP2 POP POP SWAP3 SWAP2 POP POP JUMP JUMPDEST PUSH1 0x0 PUSH1 0x20 DUP3 ADD SWAP1 POP DUP2 DUP2 SUB PUSH1 0x0 DUP4 ADD MSTORE PUSH2 0x63D DUP2 DUP5 PUSH2 0x5EA JUMP JUMPDEST SWAP1 POP SWAP3 SWAP2 POP POP JUMP JUMPDEST PUSH1 0x0 DUP2 SWAP1 POP SWAP3 SWAP2 POP POP JUMP JUMPDEST PUSH1 0x0 PUSH2 0x65B DUP3 PUSH2 0x5A4 JUMP JUMPDEST PUSH2 0x665 DUP2 DUP6 PUSH2 0x645 JUMP JUMPDEST SWAP4 POP PUSH2 0x675 DUP2 DUP6 PUSH1 0x20 DUP7 ADD PUSH2 0x5C0 JUMP JUMPDEST DUP1 DUP5 ADD SWAP2 POP POP SWAP3 SWAP2 POP POP JUMP JUMPDEST PUSH1 0x0 PUSH2 0x68D DUP3 DUP5 PUSH2 0x650 JUMP JUMPDEST SWAP2 POP DUP2 SWAP1 POP SWAP3 SWAP2 POP POP JUMP JUMPDEST PUSH32 0x4E487B7100000000000000000000000000000000000000000000000000000000 PUSH1 0x0 MSTORE PUSH1 0x32 PUSH1 0x4 MSTORE PUSH1 0x24 PUSH1 0x0 REVERT JUMPDEST PUSH32 0x4E487B7100000000000000000000000000000000000000000000000000000000 PUSH1 0x0 MSTORE PUSH1 0x22 PUSH1 0x4 MSTORE PUSH1 0x24 PUSH1 0x0 REVERT JUMPDEST PUSH1 0x0 PUSH1 0x2 DUP3 DIV SWAP1 POP PUSH1 0x1 DUP3 AND DUP1 PUSH2 0x70E JUMPI PUSH1 0x7F DUP3 AND SWAP2 POP JUMPDEST PUSH1 0x20 DUP3 LT DUP2 SUB PUSH2 0x721 JUMPI PUSH2 0x720 PUSH2 0x6C7 JUMP JUMPDEST JUMPDEST POP SWAP2 SWAP1 POP JUMP JUMPDEST PUSH1 0x0 DUP2 SWAP1 POP DUP2 PUSH1 0x0 MSTORE PUSH1 0x20 PUSH1 0x0 KECCAK256 SWAP1 POP SWAP2 SWAP1 POP JUMP JUMPDEST PUSH1 0x0 DUP2 SLOAD PUSH2 0x749 DUP2 PUSH2 0x6F6 JUMP JUMPDEST PUSH2 0x753 DUP2 DUP7 PUSH2 0x645 JUMP JUMPDEST SWAP5 POP PUSH1 0x1 DUP3 AND PUSH1 0x0 DUP2 EQ PUSH2 0x76E JUMPI PUSH1 0x1 DUP2 EQ PUSH2 0x783 JUMPI PUSH2 0x7B6 JUMP JUMPDEST PUSH1 0xFF NOT DUP4 AND DUP7 MSTORE DUP2 ISZERO ISZERO DUP3 MUL DUP7 ADD SWAP4 POP PUSH2 0x7B6 JUMP JUMPDEST PUSH2 0x78C DUP6 PUSH2 0x727 JUMP JUMPDEST PUSH1 0x0 JUMPDEST DUP4 DUP2 LT ISZERO PUSH2 0x7AE JUMPI DUP2 SLOAD DUP2 DUP10 ADD MSTORE PUSH1 0x1 DUP3 ADD SWAP2 POP PUSH1 0x20 DUP2 ADD SWAP1 POP PUSH2 0x78F JUMP JUMPDEST DUP4 DUP9 ADD SWAP6 POP POP POP JUMPDEST POP POP POP SWAP3 SWAP2 POP POP JUMP JUMPDEST PUSH1 0x0 PUSH2 0x7CB DUP3 DUP5 PUSH2 0x73C JUMP JUMPDEST SWAP2 POP DUP2 SWAP1 POP SWAP3 SWAP2 POP POP JUMP JUMPDEST PUSH32 0x4E487B7100000000000000000000000000000000000000000000000000000000 PUSH1 0x0 MSTORE PUSH1 0x11 PUSH1 0x4 MSTORE PUSH1 0x24 PUSH1 0x0 REVERT JUMPDEST PUSH1 0x0 PUSH2 0x810 DUP3 PUSH2 0x4E1 JUMP JUMPDEST SWAP2 POP PUSH2 0x81B DUP4 PUSH2 0x4E1 JUMP JUMPDEST SWAP3 POP DUP3 DUP3 ADD SWAP1 POP DUP1 DUP3 GT ISZERO PUSH2 0x833 JUMPI PUSH2 0x832 PUSH2 0x7D6 JUMP JUMPDEST JUMPDEST SWAP3 SWAP2 POP POP JUMP INVALID LOG2 PUSH5 0x6970667358 0x22 SLT KECCAK256 ADDRESS PUSH30 0x61F9CCEA733F1BA10D2E46B94F2CFDADE89B06A4019606D0601156900E PUSH5 0x736F6C6343 STOP ADDMOD 0x21 STOP CALLER "
				},
				"gasEstimates": {
					"creation": {
						"codeDepositCost": "431800",
						"executionCost": "infinite",
						"totalCost": "infinite"
					},
					"external": {
						"VotesReceived(string)": "infinite",
						"candidateList(uint256)": "infinite",
						"totalVotesfor(string)": "infinite",
						"validCandidate(string)": "infinite",
						"voteForCandidate(string)": "infinite"
					}
				},
				"methodIdentifiers": {
					"VotesReceived(string)": "a62b110f",
					"candidateList(uint256)": "b13c744b",
					"totalVotesfor(string)": "3f17c948",
					"validCandidate(string)": "538c91b2",
					"voteForCandidate(string)": "e89927ef"
				}
			},
			"storageLayout": {
				"storage": [
					{
						"astId": 5,
						"contract": "contracts/MyfirstSmartContarct.sol:myFirtsSmartcontarct",
						"label": "VotesReceived",
						"offset": 0,
						"slot": "0",
						"type": "t_mapping(t_string_memory_ptr,t_uint256)"
					},
					{
						"astId": 8,
						"contract": "contracts/MyfirstSmartContarct.sol:myFirtsSmartcontarct",
						"label": "candidateList",
						"offset": 0,
						"slot": "1",
						"type": "t_array(t_string_storage)dyn_storage"
					}
				],
				"types": {
					"t_array(t_string_storage)dyn_storage": {
						"base": "t_string_storage",
						"encoding": "dynamic_array",
						"label": "string[]",
						"numberOfBytes": "32"
					},
					"t_mapping(t_string_memory_ptr,t_uint256)": {
						"encoding": "mapping",
						"key": "t_string_memory_ptr",
						"label": "mapping(string => uint256)",
						"numberOfBytes": "32",
						"value": "t_uint256"
					},
					"t_string_memory_ptr": {
						"encoding": "bytes",
						"label": "string",
						"numberOfBytes": "32"
					},
					"t_string_storage": {
						"encoding": "bytes",
						"label": "string",
						"numberOfBytes": "32"
					},
					"t_uint256": {
						"encoding": "inplace",
						"label": "uint256",
						"numberOfBytes": "32"
					}
				}
			},
			"userdoc": {
				"kind": "user",
				"methods": {},
				"version": 1
			}
		}
	}
}